{
	"chapter-8/contract.sol": {
		"Contract": {
			"abi": [
				{
					"inputs": [
						{
							"internalType": "uint256",
							"name": "_n",
							"type": "uint256"
						}
					],
					"name": "addNums",
					"outputs": [],
					"stateMutability": "nonpayable",
					"type": "function"
				},
				{
					"inputs": [
						{
							"internalType": "uint256",
							"name": "_index",
							"type": "uint256"
						}
					],
					"name": "getNumsByIndex",
					"outputs": [
						{
							"internalType": "uint256",
							"name": "",
							"type": "uint256"
						}
					],
					"stateMutability": "view",
					"type": "function"
				},
				{
					"inputs": [],
					"name": "getNumsLength",
					"outputs": [
						{
							"internalType": "uint256",
							"name": "",
							"type": "uint256"
						}
					],
					"stateMutability": "view",
					"type": "function"
				}
			],
			"devdoc": {
				"kind": "dev",
				"methods": {},
				"version": 1
			},
			"evm": {
				"assembly": "    /* \"chapter-8/contract.sol\":58:464  contract Contract {... */\n  mstore(0x40, 0x80)\n  callvalue\n  dup1\n  iszero\n  tag_1\n  jumpi\n  revert(0x00, 0x00)\ntag_1:\n  pop\n  dataSize(sub_0)\n  dup1\n  dataOffset(sub_0)\n  0x00\n  codecopy\n  0x00\n  return\nstop\n\nsub_0: assembly {\n        /* \"chapter-8/contract.sol\":58:464  contract Contract {... */\n      mstore(0x40, 0x80)\n      callvalue\n      dup1\n      iszero\n      tag_1\n      jumpi\n      revert(0x00, 0x00)\n    tag_1:\n      pop\n      jumpi(tag_2, lt(calldatasize, 0x04))\n      shr(0xe0, calldataload(0x00))\n      dup1\n      0x2aec84f6\n      eq\n      tag_3\n      jumpi\n      dup1\n      0x4066a7c1\n      eq\n      tag_4\n      jumpi\n      dup1\n      0xff90e47d\n      eq\n      tag_5\n      jumpi\n    tag_2:\n      revert(0x00, 0x00)\n        /* \"chapter-8/contract.sol\":205:295  function getNumsLength() public view returns (uint256) {... */\n    tag_3:\n      tag_6\n      tag_7\n      jump\t// in\n    tag_6:\n      mload(0x40)\n      tag_8\n      swap2\n      swap1\n      tag_9\n      jump\t// in\n    tag_8:\n      mload(0x40)\n      dup1\n      swap2\n      sub\n      swap1\n      return\n        /* \"chapter-8/contract.sol\":136:199  function addNums(uint _n) public {... */\n    tag_4:\n      tag_10\n      0x04\n      dup1\n      calldatasize\n      sub\n      dup2\n      add\n      swap1\n      tag_11\n      swap2\n      swap1\n      tag_12\n      jump\t// in\n    tag_11:\n      tag_13\n      jump\t// in\n    tag_10:\n      stop\n        /* \"chapter-8/contract.sol\":301:462  function getNumsByIndex(uint256 _index) public view returns (uint256) {... */\n    tag_5:\n      tag_14\n      0x04\n      dup1\n      calldatasize\n      sub\n      dup2\n      add\n      swap1\n      tag_15\n      swap2\n      swap1\n      tag_12\n      jump\t// in\n    tag_15:\n      tag_16\n      jump\t// in\n    tag_14:\n      mload(0x40)\n      tag_17\n      swap2\n      swap1\n      tag_9\n      jump\t// in\n    tag_17:\n      mload(0x40)\n      dup1\n      swap2\n      sub\n      swap1\n      return\n        /* \"chapter-8/contract.sol\":205:295  function getNumsLength() public view returns (uint256) {... */\n    tag_7:\n        /* \"chapter-8/contract.sol\":251:258  uint256 */\n      0x00\n        /* \"chapter-8/contract.sol\":277:281  nums */\n      0x00\n        /* \"chapter-8/contract.sol\":277:288  nums.length */\n      dup1\n      sload\n      swap1\n      pop\n        /* \"chapter-8/contract.sol\":270:288  return nums.length */\n      swap1\n      pop\n        /* \"chapter-8/contract.sol\":205:295  function getNumsLength() public view returns (uint256) {... */\n      swap1\n      jump\t// out\n        /* \"chapter-8/contract.sol\":136:199  function addNums(uint _n) public {... */\n    tag_13:\n        /* \"chapter-8/contract.sol\":179:183  nums */\n      0x00\n        /* \"chapter-8/contract.sol\":189:191  _n */\n      dup2\n        /* \"chapter-8/contract.sol\":179:192  nums.push(_n) */\n      swap1\n      dup1\n      0x01\n      dup2\n      sload\n      add\n      dup1\n      dup3\n      sstore\n      dup1\n      swap2\n      pop\n      pop\n      0x01\n      swap1\n      sub\n      swap1\n      0x00\n      mstore\n      keccak256(0x00, 0x20)\n      add\n      0x00\n      swap1\n      swap2\n      swap1\n      swap2\n      swap1\n      swap2\n      pop\n      sstore\n        /* \"chapter-8/contract.sol\":136:199  function addNums(uint _n) public {... */\n      pop\n      jump\t// out\n        /* \"chapter-8/contract.sol\":301:462  function getNumsByIndex(uint256 _index) public view returns (uint256) {... */\n    tag_16:\n        /* \"chapter-8/contract.sol\":362:369  uint256 */\n      0x00\n        /* \"chapter-8/contract.sol\":403:409  _index */\n      dup2\n        /* \"chapter-8/contract.sol\":389:393  nums */\n      0x00\n        /* \"chapter-8/contract.sol\":389:400  nums.length */\n      dup1\n      sload\n      swap1\n      pop\n        /* \"chapter-8/contract.sol\":389:409  nums.length > _index */\n      gt\n        /* \"chapter-8/contract.sol\":381:426  require(nums.length > _index,\"Invalid Index\") */\n      tag_22\n      jumpi\n      mload(0x40)\n      0x08c379a000000000000000000000000000000000000000000000000000000000\n      dup2\n      mstore\n      0x04\n      add\n      tag_23\n      swap1\n      tag_24\n      jump\t// in\n    tag_23:\n      mload(0x40)\n      dup1\n      swap2\n      sub\n      swap1\n      revert\n    tag_22:\n        /* \"chapter-8/contract.sol\":443:447  nums */\n      0x00\n        /* \"chapter-8/contract.sol\":448:454  _index */\n      dup3\n        /* \"chapter-8/contract.sol\":443:455  nums[_index] */\n      dup2\n      sload\n      dup2\n      lt\n      tag_25\n      jumpi\n      tag_26\n      tag_27\n      jump\t// in\n    tag_26:\n    tag_25:\n      swap1\n      0x00\n      mstore\n      keccak256(0x00, 0x20)\n      add\n      sload\n        /* \"chapter-8/contract.sol\":436:455  return nums[_index] */\n      swap1\n      pop\n        /* \"chapter-8/contract.sol\":301:462  function getNumsByIndex(uint256 _index) public view returns (uint256) {... */\n      swap2\n      swap1\n      pop\n      jump\t// out\n        /* \"#utility.yul\":7:84   */\n    tag_29:\n        /* \"#utility.yul\":44:51   */\n      0x00\n        /* \"#utility.yul\":73:78   */\n      dup2\n        /* \"#utility.yul\":62:78   */\n      swap1\n      pop\n        /* \"#utility.yul\":7:84   */\n      swap2\n      swap1\n      pop\n      jump\t// out\n        /* \"#utility.yul\":90:208   */\n    tag_30:\n        /* \"#utility.yul\":177:201   */\n      tag_42\n        /* \"#utility.yul\":195:200   */\n      dup2\n        /* \"#utility.yul\":177:201   */\n      tag_29\n      jump\t// in\n    tag_42:\n        /* \"#utility.yul\":172:175   */\n      dup3\n        /* \"#utility.yul\":165:202   */\n      mstore\n        /* \"#utility.yul\":90:208   */\n      pop\n      pop\n      jump\t// out\n        /* \"#utility.yul\":214:436   */\n    tag_9:\n        /* \"#utility.yul\":307:311   */\n      0x00\n        /* \"#utility.yul\":345:347   */\n      0x20\n        /* \"#utility.yul\":334:343   */\n      dup3\n        /* \"#utility.yul\":330:348   */\n      add\n        /* \"#utility.yul\":322:348   */\n      swap1\n      pop\n        /* \"#utility.yul\":358:429   */\n      tag_44\n        /* \"#utility.yul\":426:427   */\n      0x00\n        /* \"#utility.yul\":415:424   */\n      dup4\n        /* \"#utility.yul\":411:428   */\n      add\n        /* \"#utility.yul\":402:408   */\n      dup5\n        /* \"#utility.yul\":358:429   */\n      tag_30\n      jump\t// in\n    tag_44:\n        /* \"#utility.yul\":214:436   */\n      swap3\n      swap2\n      pop\n      pop\n      jump\t// out\n        /* \"#utility.yul\":523:640   */\n    tag_32:\n        /* \"#utility.yul\":632:633   */\n      0x00\n        /* \"#utility.yul\":629:630   */\n      0x00\n        /* \"#utility.yul\":622:634   */\n      revert\n        /* \"#utility.yul\":769:891   */\n    tag_34:\n        /* \"#utility.yul\":842:866   */\n      tag_49\n        /* \"#utility.yul\":860:865   */\n      dup2\n        /* \"#utility.yul\":842:866   */\n      tag_29\n      jump\t// in\n    tag_49:\n        /* \"#utility.yul\":835:840   */\n      dup2\n        /* \"#utility.yul\":832:867   */\n      eq\n        /* \"#utility.yul\":822:885   */\n      tag_50\n      jumpi\n        /* \"#utility.yul\":881:882   */\n      0x00\n        /* \"#utility.yul\":878:879   */\n      0x00\n        /* \"#utility.yul\":871:883   */\n      revert\n        /* \"#utility.yul\":822:885   */\n    tag_50:\n        /* \"#utility.yul\":769:891   */\n      pop\n      jump\t// out\n        /* \"#utility.yul\":897:1036   */\n    tag_35:\n        /* \"#utility.yul\":943:948   */\n      0x00\n        /* \"#utility.yul\":981:987   */\n      dup2\n        /* \"#utility.yul\":968:988   */\n      calldataload\n        /* \"#utility.yul\":959:988   */\n      swap1\n      pop\n        /* \"#utility.yul\":997:1030   */\n      tag_52\n        /* \"#utility.yul\":1024:1029   */\n      dup2\n        /* \"#utility.yul\":997:1030   */\n      tag_34\n      jump\t// in\n    tag_52:\n        /* \"#utility.yul\":897:1036   */\n      swap3\n      swap2\n      pop\n      pop\n      jump\t// out\n        /* \"#utility.yul\":1042:1371   */\n    tag_12:\n        /* \"#utility.yul\":1101:1107   */\n      0x00\n        /* \"#utility.yul\":1150:1152   */\n      0x20\n        /* \"#utility.yul\":1138:1147   */\n      dup3\n        /* \"#utility.yul\":1129:1136   */\n      dup5\n        /* \"#utility.yul\":1125:1148   */\n      sub\n        /* \"#utility.yul\":1121:1153   */\n      slt\n        /* \"#utility.yul\":1118:1237   */\n      iszero\n      tag_54\n      jumpi\n        /* \"#utility.yul\":1156:1235   */\n      tag_55\n      tag_32\n      jump\t// in\n    tag_55:\n        /* \"#utility.yul\":1118:1237   */\n    tag_54:\n        /* \"#utility.yul\":1276:1277   */\n      0x00\n        /* \"#utility.yul\":1301:1354   */\n      tag_56\n        /* \"#utility.yul\":1346:1353   */\n      dup5\n        /* \"#utility.yul\":1337:1343   */\n      dup3\n        /* \"#utility.yul\":1326:1335   */\n      dup6\n        /* \"#utility.yul\":1322:1344   */\n      add\n        /* \"#utility.yul\":1301:1354   */\n      tag_35\n      jump\t// in\n    tag_56:\n        /* \"#utility.yul\":1291:1354   */\n      swap2\n      pop\n        /* \"#utility.yul\":1247:1364   */\n      pop\n        /* \"#utility.yul\":1042:1371   */\n      swap3\n      swap2\n      pop\n      pop\n      jump\t// out\n        /* \"#utility.yul\":1377:1546   */\n    tag_36:\n        /* \"#utility.yul\":1461:1472   */\n      0x00\n        /* \"#utility.yul\":1495:1501   */\n      dup3\n        /* \"#utility.yul\":1490:1493   */\n      dup3\n        /* \"#utility.yul\":1483:1502   */\n      mstore\n        /* \"#utility.yul\":1535:1539   */\n      0x20\n        /* \"#utility.yul\":1530:1533   */\n      dup3\n        /* \"#utility.yul\":1526:1540   */\n      add\n        /* \"#utility.yul\":1511:1540   */\n      swap1\n      pop\n        /* \"#utility.yul\":1377:1546   */\n      swap3\n      swap2\n      pop\n      pop\n      jump\t// out\n        /* \"#utility.yul\":1552:1715   */\n    tag_37:\n        /* \"#utility.yul\":1692:1707   */\n      0x496e76616c696420496e64657800000000000000000000000000000000000000\n        /* \"#utility.yul\":1688:1689   */\n      0x00\n        /* \"#utility.yul\":1680:1686   */\n      dup3\n        /* \"#utility.yul\":1676:1690   */\n      add\n        /* \"#utility.yul\":1669:1708   */\n      mstore\n        /* \"#utility.yul\":1552:1715   */\n      pop\n      jump\t// out\n        /* \"#utility.yul\":1721:2087   */\n    tag_38:\n        /* \"#utility.yul\":1863:1866   */\n      0x00\n        /* \"#utility.yul\":1884:1951   */\n      tag_60\n        /* \"#utility.yul\":1948:1950   */\n      0x0d\n        /* \"#utility.yul\":1943:1946   */\n      dup4\n        /* \"#utility.yul\":1884:1951   */\n      tag_36\n      jump\t// in\n    tag_60:\n        /* \"#utility.yul\":1877:1951   */\n      swap2\n      pop\n        /* \"#utility.yul\":1960:2053   */\n      tag_61\n        /* \"#utility.yul\":2049:2052   */\n      dup3\n        /* \"#utility.yul\":1960:2053   */\n      tag_37\n      jump\t// in\n    tag_61:\n        /* \"#utility.yul\":2078:2080   */\n      0x20\n        /* \"#utility.yul\":2073:2076   */\n      dup3\n        /* \"#utility.yul\":2069:2081   */\n      add\n        /* \"#utility.yul\":2062:2081   */\n      swap1\n      pop\n        /* \"#utility.yul\":1721:2087   */\n      swap2\n      swap1\n      pop\n      jump\t// out\n        /* \"#utility.yul\":2093:2512   */\n    tag_24:\n        /* \"#utility.yul\":2259:2263   */\n      0x00\n        /* \"#utility.yul\":2297:2299   */\n      0x20\n        /* \"#utility.yul\":2286:2295   */\n      dup3\n        /* \"#utility.yul\":2282:2300   */\n      add\n        /* \"#utility.yul\":2274:2300   */\n      swap1\n      pop\n        /* \"#utility.yul\":2346:2355   */\n      dup2\n        /* \"#utility.yul\":2340:2344   */\n      dup2\n        /* \"#utility.yul\":2336:2356   */\n      sub\n        /* \"#utility.yul\":2332:2333   */\n      0x00\n        /* \"#utility.yul\":2321:2330   */\n      dup4\n        /* \"#utility.yul\":2317:2334   */\n      add\n        /* \"#utility.yul\":2310:2357   */\n      mstore\n        /* \"#utility.yul\":2374:2505   */\n      tag_63\n        /* \"#utility.yul\":2500:2504   */\n      dup2\n        /* \"#utility.yul\":2374:2505   */\n      tag_38\n      jump\t// in\n    tag_63:\n        /* \"#utility.yul\":2366:2505   */\n      swap1\n      pop\n        /* \"#utility.yul\":2093:2512   */\n      swap2\n      swap1\n      pop\n      jump\t// out\n        /* \"#utility.yul\":2518:2698   */\n    tag_27:\n        /* \"#utility.yul\":2566:2643   */\n      0x4e487b7100000000000000000000000000000000000000000000000000000000\n        /* \"#utility.yul\":2563:2564   */\n      0x00\n        /* \"#utility.yul\":2556:2644   */\n      mstore\n        /* \"#utility.yul\":2663:2667   */\n      0x32\n        /* \"#utility.yul\":2660:2661   */\n      0x04\n        /* \"#utility.yul\":2653:2668   */\n      mstore\n        /* \"#utility.yul\":2687:2691   */\n      0x24\n        /* \"#utility.yul\":2684:2685   */\n      0x00\n        /* \"#utility.yul\":2677:2692   */\n      revert\n\n    auxdata: 0xa2646970667358221220f7a34fa1074a9046e6a681cffbe2406b7b75386b60c0e64aeaff16468df99d6264736f6c634300081e0033\n}\n",
				"bytecode": {
					"linkReferences": {},
					"object": "6080604052348015600e575f5ffd5b506102af8061001c5f395ff3fe608060405234801561000f575f5ffd5b506004361061003f575f3560e01c80632aec84f6146100435780634066a7c114610061578063ff90e47d1461007d575b5f5ffd5b61004b6100ad565b6040516100589190610162565b60405180910390f35b61007b600480360381019061007691906101a9565b6100b8565b005b610097600480360381019061009291906101a9565b6100e0565b6040516100a49190610162565b60405180910390f35b5f5f80549050905090565b5f81908060018154018082558091505060019003905f5260205f20015f909190919091505550565b5f815f8054905011610127576040517f08c379a000000000000000000000000000000000000000000000000000000000815260040161011e9061022e565b60405180910390fd5b5f828154811061013a5761013961024c565b5b905f5260205f2001549050919050565b5f819050919050565b61015c8161014a565b82525050565b5f6020820190506101755f830184610153565b92915050565b5f5ffd5b6101888161014a565b8114610192575f5ffd5b50565b5f813590506101a38161017f565b92915050565b5f602082840312156101be576101bd61017b565b5b5f6101cb84828501610195565b91505092915050565b5f82825260208201905092915050565b7f496e76616c696420496e646578000000000000000000000000000000000000005f82015250565b5f610218600d836101d4565b9150610223826101e4565b602082019050919050565b5f6020820190508181035f8301526102458161020c565b9050919050565b7f4e487b71000000000000000000000000000000000000000000000000000000005f52603260045260245ffdfea2646970667358221220f7a34fa1074a9046e6a681cffbe2406b7b75386b60c0e64aeaff16468df99d6264736f6c634300081e0033",
					"opcodes": "PUSH1 0x80 PUSH1 0x40 MSTORE CALLVALUE DUP1 ISZERO PUSH1 0xE JUMPI PUSH0 PUSH0 REVERT JUMPDEST POP PUSH2 0x2AF DUP1 PUSH2 0x1C PUSH0 CODECOPY PUSH0 RETURN INVALID PUSH1 0x80 PUSH1 0x40 MSTORE CALLVALUE DUP1 ISZERO PUSH2 0xF JUMPI PUSH0 PUSH0 REVERT JUMPDEST POP PUSH1 0x4 CALLDATASIZE LT PUSH2 0x3F JUMPI PUSH0 CALLDATALOAD PUSH1 0xE0 SHR DUP1 PUSH4 0x2AEC84F6 EQ PUSH2 0x43 JUMPI DUP1 PUSH4 0x4066A7C1 EQ PUSH2 0x61 JUMPI DUP1 PUSH4 0xFF90E47D EQ PUSH2 0x7D JUMPI JUMPDEST PUSH0 PUSH0 REVERT JUMPDEST PUSH2 0x4B PUSH2 0xAD JUMP JUMPDEST PUSH1 0x40 MLOAD PUSH2 0x58 SWAP2 SWAP1 PUSH2 0x162 JUMP JUMPDEST PUSH1 0x40 MLOAD DUP1 SWAP2 SUB SWAP1 RETURN JUMPDEST PUSH2 0x7B PUSH1 0x4 DUP1 CALLDATASIZE SUB DUP2 ADD SWAP1 PUSH2 0x76 SWAP2 SWAP1 PUSH2 0x1A9 JUMP JUMPDEST PUSH2 0xB8 JUMP JUMPDEST STOP JUMPDEST PUSH2 0x97 PUSH1 0x4 DUP1 CALLDATASIZE SUB DUP2 ADD SWAP1 PUSH2 0x92 SWAP2 SWAP1 PUSH2 0x1A9 JUMP JUMPDEST PUSH2 0xE0 JUMP JUMPDEST PUSH1 0x40 MLOAD PUSH2 0xA4 SWAP2 SWAP1 PUSH2 0x162 JUMP JUMPDEST PUSH1 0x40 MLOAD DUP1 SWAP2 SUB SWAP1 RETURN JUMPDEST PUSH0 PUSH0 DUP1 SLOAD SWAP1 POP SWAP1 POP SWAP1 JUMP JUMPDEST PUSH0 DUP2 SWAP1 DUP1 PUSH1 0x1 DUP2 SLOAD ADD DUP1 DUP3 SSTORE DUP1 SWAP2 POP POP PUSH1 0x1 SWAP1 SUB SWAP1 PUSH0 MSTORE PUSH1 0x20 PUSH0 KECCAK256 ADD PUSH0 SWAP1 SWAP2 SWAP1 SWAP2 SWAP1 SWAP2 POP SSTORE POP JUMP JUMPDEST PUSH0 DUP2 PUSH0 DUP1 SLOAD SWAP1 POP GT PUSH2 0x127 JUMPI PUSH1 0x40 MLOAD PUSH32 0x8C379A000000000000000000000000000000000000000000000000000000000 DUP2 MSTORE PUSH1 0x4 ADD PUSH2 0x11E SWAP1 PUSH2 0x22E JUMP JUMPDEST PUSH1 0x40 MLOAD DUP1 SWAP2 SUB SWAP1 REVERT JUMPDEST PUSH0 DUP3 DUP2 SLOAD DUP2 LT PUSH2 0x13A JUMPI PUSH2 0x139 PUSH2 0x24C JUMP JUMPDEST JUMPDEST SWAP1 PUSH0 MSTORE PUSH1 0x20 PUSH0 KECCAK256 ADD SLOAD SWAP1 POP SWAP2 SWAP1 POP JUMP JUMPDEST PUSH0 DUP2 SWAP1 POP SWAP2 SWAP1 POP JUMP JUMPDEST PUSH2 0x15C DUP2 PUSH2 0x14A JUMP JUMPDEST DUP3 MSTORE POP POP JUMP JUMPDEST PUSH0 PUSH1 0x20 DUP3 ADD SWAP1 POP PUSH2 0x175 PUSH0 DUP4 ADD DUP5 PUSH2 0x153 JUMP JUMPDEST SWAP3 SWAP2 POP POP JUMP JUMPDEST PUSH0 PUSH0 REVERT JUMPDEST PUSH2 0x188 DUP2 PUSH2 0x14A JUMP JUMPDEST DUP2 EQ PUSH2 0x192 JUMPI PUSH0 PUSH0 REVERT JUMPDEST POP JUMP JUMPDEST PUSH0 DUP2 CALLDATALOAD SWAP1 POP PUSH2 0x1A3 DUP2 PUSH2 0x17F JUMP JUMPDEST SWAP3 SWAP2 POP POP JUMP JUMPDEST PUSH0 PUSH1 0x20 DUP3 DUP5 SUB SLT ISZERO PUSH2 0x1BE JUMPI PUSH2 0x1BD PUSH2 0x17B JUMP JUMPDEST JUMPDEST PUSH0 PUSH2 0x1CB DUP5 DUP3 DUP6 ADD PUSH2 0x195 JUMP JUMPDEST SWAP2 POP POP SWAP3 SWAP2 POP POP JUMP JUMPDEST PUSH0 DUP3 DUP3 MSTORE PUSH1 0x20 DUP3 ADD SWAP1 POP SWAP3 SWAP2 POP POP JUMP JUMPDEST PUSH32 0x496E76616C696420496E64657800000000000000000000000000000000000000 PUSH0 DUP3 ADD MSTORE POP JUMP JUMPDEST PUSH0 PUSH2 0x218 PUSH1 0xD DUP4 PUSH2 0x1D4 JUMP JUMPDEST SWAP2 POP PUSH2 0x223 DUP3 PUSH2 0x1E4 JUMP JUMPDEST PUSH1 0x20 DUP3 ADD SWAP1 POP SWAP2 SWAP1 POP JUMP JUMPDEST PUSH0 PUSH1 0x20 DUP3 ADD SWAP1 POP DUP2 DUP2 SUB PUSH0 DUP4 ADD MSTORE PUSH2 0x245 DUP2 PUSH2 0x20C JUMP JUMPDEST SWAP1 POP SWAP2 SWAP1 POP JUMP JUMPDEST PUSH32 0x4E487B7100000000000000000000000000000000000000000000000000000000 PUSH0 MSTORE PUSH1 0x32 PUSH1 0x4 MSTORE PUSH1 0x24 PUSH0 REVERT INVALID LOG2 PUSH5 0x6970667358 0x22 SLT KECCAK256 0xF7 LOG3 0x4F LOG1 SMOD BLOBBASEFEE SWAP1 CHAINID DUPN 0xA6 DUP2 0xCF EXTSTATICCALL 0xE2 BLOCKHASH PUSH12 0x7B75386B60C0E64AEAFF1646 DUP14 EXTDELEGATECALL SWAP14 PUSH3 0x64736F PUSH13 0x634300081E0033000000000000 "
				},
				"gasEstimates": {
					"creation": {
						"codeDepositCost": "137400",
						"executionCost": "181",
						"totalCost": "137581"
					},
					"external": {
						"addNums(uint256)": "46820",
						"getNumsByIndex(uint256)": "infinite",
						"getNumsLength()": "2417"
					}
				},
				"methodIdentifiers": {
					"addNums(uint256)": "4066a7c1",
					"getNumsByIndex(uint256)": "ff90e47d",
					"getNumsLength()": "2aec84f6"
				}
			},
			"storageLayout": {
				"storage": [
					{
						"astId": 4,
						"contract": "chapter-8/contract.sol:Contract",
						"label": "nums",
						"offset": 0,
						"slot": "0",
						"type": "t_array(t_uint256)dyn_storage"
					}
				],
				"types": {
					"t_array(t_uint256)dyn_storage": {
						"base": "t_uint256",
						"encoding": "dynamic_array",
						"label": "uint256[]",
						"numberOfBytes": "32"
					},
					"t_uint256": {
						"encoding": "inplace",
						"label": "uint256",
						"numberOfBytes": "32"
					}
				}
			},
			"userdoc": {
				"kind": "user",
				"methods": {},
				"version": 1
			}
		}
	}
}