{
	"chapter-9/contract.sol": {
		"Contract": {
			"abi": [
				{
					"inputs": [
						{
							"internalType": "uint256",
							"name": "",
							"type": "uint256"
						}
					],
					"name": "collections",
					"outputs": [
						{
							"internalType": "string",
							"name": "name",
							"type": "string"
						},
						{
							"internalType": "uint256",
							"name": "age",
							"type": "uint256"
						},
						{
							"internalType": "address",
							"name": "addr",
							"type": "address"
						}
					],
					"stateMutability": "view",
					"type": "function"
				},
				{
					"inputs": [
						{
							"internalType": "string",
							"name": "_name",
							"type": "string"
						},
						{
							"internalType": "uint256",
							"name": "_age",
							"type": "uint256"
						}
					],
					"name": "create",
					"outputs": [],
					"stateMutability": "nonpayable",
					"type": "function"
				},
				{
					"inputs": [
						{
							"internalType": "uint256",
							"name": "_index",
							"type": "uint256"
						}
					],
					"name": "get",
					"outputs": [
						{
							"components": [
								{
									"internalType": "string",
									"name": "name",
									"type": "string"
								},
								{
									"internalType": "uint256",
									"name": "age",
									"type": "uint256"
								},
								{
									"internalType": "address",
									"name": "addr",
									"type": "address"
								}
							],
							"internalType": "struct Contract.Person",
							"name": "",
							"type": "tuple"
						}
					],
					"stateMutability": "view",
					"type": "function"
				},
				{
					"inputs": [],
					"name": "person",
					"outputs": [
						{
							"internalType": "string",
							"name": "name",
							"type": "string"
						},
						{
							"internalType": "uint256",
							"name": "age",
							"type": "uint256"
						},
						{
							"internalType": "address",
							"name": "addr",
							"type": "address"
						}
					],
					"stateMutability": "view",
					"type": "function"
				}
			],
			"devdoc": {
				"kind": "dev",
				"methods": {},
				"version": 1
			},
			"evm": {
				"assembly": "    /* \"chapter-9/contract.sol\":58:610  contract Contract {... */\n  mstore(0x40, 0x80)\n  callvalue\n  dup1\n  iszero\n  tag_1\n  jumpi\n  revert(0x00, 0x00)\ntag_1:\n  pop\n  dataSize(sub_0)\n  dup1\n  dataOffset(sub_0)\n  0x00\n  codecopy\n  0x00\n  return\nstop\n\nsub_0: assembly {\n        /* \"chapter-9/contract.sol\":58:610  contract Contract {... */\n      mstore(0x40, 0x80)\n      callvalue\n      dup1\n      iszero\n      tag_1\n      jumpi\n      revert(0x00, 0x00)\n    tag_1:\n      pop\n      jumpi(tag_2, lt(calldatasize, 0x04))\n      shr(0xe0, calldataload(0x00))\n      dup1\n      0x46f81a87\n      eq\n      tag_3\n      jumpi\n      dup1\n      0x77ec2b55\n      eq\n      tag_4\n      jumpi\n      dup1\n      0x9507d39a\n      eq\n      tag_5\n      jumpi\n      dup1\n      0xfdbda0ec\n      eq\n      tag_6\n      jumpi\n    tag_2:\n      revert(0x00, 0x00)\n        /* \"chapter-9/contract.sol\":258:448  function create(string memory _name, uint256 _age) public {... */\n    tag_3:\n      tag_7\n      0x04\n      dup1\n      calldatasize\n      sub\n      dup2\n      add\n      swap1\n      tag_8\n      swap2\n      swap1\n      tag_9\n      jump\t// in\n    tag_8:\n      tag_10\n      jump\t// in\n    tag_7:\n      stop\n        /* \"chapter-9/contract.sol\":207:227  Person public person */\n    tag_4:\n      tag_11\n      tag_12\n      jump\t// in\n    tag_11:\n      mload(0x40)\n      tag_13\n      swap4\n      swap3\n      swap2\n      swap1\n      tag_14\n      jump\t// in\n    tag_13:\n      mload(0x40)\n      dup1\n      swap2\n      sub\n      swap1\n      return\n        /* \"chapter-9/contract.sol\":454:608  function get(uint256 _index) public view returns (Person memory) {... */\n    tag_5:\n      tag_15\n      0x04\n      dup1\n      calldatasize\n      sub\n      dup2\n      add\n      swap1\n      tag_16\n      swap2\n      swap1\n      tag_17\n      jump\t// in\n    tag_16:\n      tag_18\n      jump\t// in\n    tag_15:\n      mload(0x40)\n      tag_19\n      swap2\n      swap1\n      tag_20\n      jump\t// in\n    tag_19:\n      mload(0x40)\n      dup1\n      swap2\n      sub\n      swap1\n      return\n        /* \"chapter-9/contract.sol\":173:200  Person[] public collections */\n    tag_6:\n      tag_21\n      0x04\n      dup1\n      calldatasize\n      sub\n      dup2\n      add\n      swap1\n      tag_22\n      swap2\n      swap1\n      tag_17\n      jump\t// in\n    tag_22:\n      tag_23\n      jump\t// in\n    tag_21:\n      mload(0x40)\n      tag_24\n      swap4\n      swap3\n      swap2\n      swap1\n      tag_14\n      jump\t// in\n    tag_24:\n      mload(0x40)\n      dup1\n      swap2\n      sub\n      swap1\n      return\n        /* \"chapter-9/contract.sol\":258:448  function create(string memory _name, uint256 _age) public {... */\n    tag_10:\n        /* \"chapter-9/contract.sol\":340:345  _name */\n      dup2\n        /* \"chapter-9/contract.sol\":326:332  person */\n      0x01\n        /* \"chapter-9/contract.sol\":326:337  person.name */\n      0x00\n      add\n        /* \"chapter-9/contract.sol\":326:345  person.name = _name */\n      swap1\n      dup2\n      tag_26\n      swap2\n      swap1\n      tag_27\n      jump\t// in\n    tag_26:\n      pop\n        /* \"chapter-9/contract.sol\":368:372  _age */\n      dup1\n        /* \"chapter-9/contract.sol\":355:361  person */\n      0x01\n        /* \"chapter-9/contract.sol\":355:365  person.age */\n      dup1\n      add\n        /* \"chapter-9/contract.sol\":355:372  person.age = _age */\n      dup2\n      swap1\n      sstore\n      pop\n        /* \"chapter-9/contract.sol\":396:406  msg.sender */\n      caller\n        /* \"chapter-9/contract.sol\":382:388  person */\n      0x01\n        /* \"chapter-9/contract.sol\":382:393  person.addr */\n      0x02\n      add\n      0x00\n        /* \"chapter-9/contract.sol\":382:406  person.addr = msg.sender */\n      0x0100\n      exp\n      dup2\n      sload\n      dup2\n      0xffffffffffffffffffffffffffffffffffffffff\n      mul\n      not\n      and\n      swap1\n      dup4\n      0xffffffffffffffffffffffffffffffffffffffff\n      and\n      mul\n      or\n      swap1\n      sstore\n      pop\n        /* \"chapter-9/contract.sol\":417:428  collections */\n      0x00\n        /* \"chapter-9/contract.sol\":434:440  person */\n      0x01\n        /* \"chapter-9/contract.sol\":417:441  collections.push(person) */\n      swap1\n      dup1\n      0x01\n      dup2\n      sload\n      add\n      dup1\n      dup3\n      sstore\n      dup1\n      swap2\n      pop\n      pop\n      0x01\n      swap1\n      sub\n      swap1\n      0x00\n      mstore\n      keccak256(0x00, 0x20)\n      swap1\n      0x03\n      mul\n      add\n      0x00\n      swap1\n      swap2\n      swap1\n      swap2\n      swap1\n      swap2\n      pop\n      0x00\n      dup3\n      add\n      dup2\n      0x00\n      add\n      swap1\n      dup2\n      tag_29\n      swap2\n      swap1\n      tag_30\n      jump\t// in\n    tag_29:\n      pop\n      0x01\n      dup3\n      add\n      sload\n      dup2\n      0x01\n      add\n      sstore\n      0x02\n      dup3\n      add\n      0x00\n      swap1\n      sload\n      swap1\n      0x0100\n      exp\n      swap1\n      div\n      0xffffffffffffffffffffffffffffffffffffffff\n      and\n      dup2\n      0x02\n      add\n      exp(0x0100, 0x00)\n      dup2\n      sload\n      dup2\n      0xffffffffffffffffffffffffffffffffffffffff\n      mul\n      not\n      and\n      swap1\n      dup4\n      0xffffffffffffffffffffffffffffffffffffffff\n      and\n      mul\n      or\n      swap1\n      sstore\n      pop\n      pop\n      pop\n        /* \"chapter-9/contract.sol\":258:448  function create(string memory _name, uint256 _age) public {... */\n      pop\n      pop\n      jump\t// out\n        /* \"chapter-9/contract.sol\":207:227  Person public person */\n    tag_12:\n      0x01\n      dup1\n      0x00\n      add\n      dup1\n      sload\n      tag_31\n      swap1\n      tag_32\n      jump\t// in\n    tag_31:\n      dup1\n      0x1f\n      add\n      0x20\n      dup1\n      swap2\n      div\n      mul\n      0x20\n      add\n      mload(0x40)\n      swap1\n      dup2\n      add\n      0x40\n      mstore\n      dup1\n      swap3\n      swap2\n      swap1\n      dup2\n      dup2\n      mstore\n      0x20\n      add\n      dup3\n      dup1\n      sload\n      tag_33\n      swap1\n      tag_32\n      jump\t// in\n    tag_33:\n      dup1\n      iszero\n      tag_34\n      jumpi\n      dup1\n      0x1f\n      lt\n      tag_35\n      jumpi\n      0x0100\n      dup1\n      dup4\n      sload\n      div\n      mul\n      dup4\n      mstore\n      swap2\n      0x20\n      add\n      swap2\n      jump(tag_34)\n    tag_35:\n      dup3\n      add\n      swap2\n      swap1\n      0x00\n      mstore\n      keccak256(0x00, 0x20)\n      swap1\n    tag_36:\n      dup2\n      sload\n      dup2\n      mstore\n      swap1\n      0x01\n      add\n      swap1\n      0x20\n      add\n      dup1\n      dup4\n      gt\n      tag_36\n      jumpi\n      dup3\n      swap1\n      sub\n      0x1f\n      and\n      dup3\n      add\n      swap2\n    tag_34:\n      pop\n      pop\n      pop\n      pop\n      pop\n      swap1\n      dup1\n      0x01\n      add\n      sload\n      swap1\n      dup1\n      0x02\n      add\n      0x00\n      swap1\n      sload\n      swap1\n      0x0100\n      exp\n      swap1\n      div\n      0xffffffffffffffffffffffffffffffffffffffff\n      and\n      swap1\n      pop\n      dup4\n      jump\t// out\n        /* \"chapter-9/contract.sol\":454:608  function get(uint256 _index) public view returns (Person memory) {... */\n    tag_18:\n        /* \"chapter-9/contract.sol\":504:517  Person memory */\n      tag_37\n      tag_38\n      jump\t// in\n    tag_37:\n        /* \"chapter-9/contract.sol\":558:564  _index */\n      dup2\n        /* \"chapter-9/contract.sol\":537:548  collections */\n      0x00\n        /* \"chapter-9/contract.sol\":537:555  collections.length */\n      dup1\n      sload\n      swap1\n      pop\n        /* \"chapter-9/contract.sol\":537:564  collections.length > _index */\n      gt\n        /* \"chapter-9/contract.sol\":529:565  require(collections.length > _index) */\n      tag_40\n      jumpi\n      revert(0x00, 0x00)\n    tag_40:\n        /* \"chapter-9/contract.sol\":582:593  collections */\n      0x00\n        /* \"chapter-9/contract.sol\":594:600  _index */\n      dup3\n        /* \"chapter-9/contract.sol\":582:601  collections[_index] */\n      dup2\n      sload\n      dup2\n      lt\n      tag_41\n      jumpi\n      tag_42\n      tag_43\n      jump\t// in\n    tag_42:\n    tag_41:\n      swap1\n      0x00\n      mstore\n      keccak256(0x00, 0x20)\n      swap1\n      0x03\n      mul\n      add\n        /* \"chapter-9/contract.sol\":575:601  return collections[_index] */\n      mload(0x40)\n      dup1\n      0x60\n      add\n      0x40\n      mstore\n      swap1\n      dup2\n      0x00\n      dup3\n      add\n      dup1\n      sload\n      tag_45\n      swap1\n      tag_32\n      jump\t// in\n    tag_45:\n      dup1\n      0x1f\n      add\n      0x20\n      dup1\n      swap2\n      div\n      mul\n      0x20\n      add\n      mload(0x40)\n      swap1\n      dup2\n      add\n      0x40\n      mstore\n      dup1\n      swap3\n      swap2\n      swap1\n      dup2\n      dup2\n      mstore\n      0x20\n      add\n      dup3\n      dup1\n      sload\n      tag_46\n      swap1\n      tag_32\n      jump\t// in\n    tag_46:\n      dup1\n      iszero\n      tag_47\n      jumpi\n      dup1\n      0x1f\n      lt\n      tag_48\n      jumpi\n      0x0100\n      dup1\n      dup4\n      sload\n      div\n      mul\n      dup4\n      mstore\n      swap2\n      0x20\n      add\n      swap2\n      jump(tag_47)\n    tag_48:\n      dup3\n      add\n      swap2\n      swap1\n      0x00\n      mstore\n      keccak256(0x00, 0x20)\n      swap1\n    tag_49:\n      dup2\n      sload\n      dup2\n      mstore\n      swap1\n      0x01\n      add\n      swap1\n      0x20\n      add\n      dup1\n      dup4\n      gt\n      tag_49\n      jumpi\n      dup3\n      swap1\n      sub\n      0x1f\n      and\n      dup3\n      add\n      swap2\n    tag_47:\n      pop\n      pop\n      pop\n      pop\n      pop\n      dup2\n      mstore\n      0x20\n      add\n      0x01\n      dup3\n      add\n      sload\n      dup2\n      mstore\n      0x20\n      add\n      0x02\n      dup3\n      add\n      0x00\n      swap1\n      sload\n      swap1\n      0x0100\n      exp\n      swap1\n      div\n      0xffffffffffffffffffffffffffffffffffffffff\n      and\n      0xffffffffffffffffffffffffffffffffffffffff\n      and\n      0xffffffffffffffffffffffffffffffffffffffff\n      and\n      dup2\n      mstore\n      pop\n      pop\n      swap1\n      pop\n        /* \"chapter-9/contract.sol\":454:608  function get(uint256 _index) public view returns (Person memory) {... */\n      swap2\n      swap1\n      pop\n      jump\t// out\n        /* \"chapter-9/contract.sol\":173:200  Person[] public collections */\n    tag_23:\n      0x00\n      dup2\n      dup2\n      sload\n      dup2\n      lt\n      tag_50\n      jumpi\n      0x00\n      dup1\n      revert\n    tag_50:\n      swap1\n      0x00\n      mstore\n      keccak256(0x00, 0x20)\n      swap1\n      0x03\n      mul\n      add\n      0x00\n      swap2\n      pop\n      swap1\n      pop\n      dup1\n      0x00\n      add\n      dup1\n      sload\n      tag_52\n      swap1\n      tag_32\n      jump\t// in\n    tag_52:\n      dup1\n      0x1f\n      add\n      0x20\n      dup1\n      swap2\n      div\n      mul\n      0x20\n      add\n      mload(0x40)\n      swap1\n      dup2\n      add\n      0x40\n      mstore\n      dup1\n      swap3\n      swap2\n      swap1\n      dup2\n      dup2\n      mstore\n      0x20\n      add\n      dup3\n      dup1\n      sload\n      tag_53\n      swap1\n      tag_32\n      jump\t// in\n    tag_53:\n      dup1\n      iszero\n      tag_54\n      jumpi\n      dup1\n      0x1f\n      lt\n      tag_55\n      jumpi\n      0x0100\n      dup1\n      dup4\n      sload\n      div\n      mul\n      dup4\n      mstore\n      swap2\n      0x20\n      add\n      swap2\n      jump(tag_54)\n    tag_55:\n      dup3\n      add\n      swap2\n      swap1\n      0x00\n      mstore\n      keccak256(0x00, 0x20)\n      swap1\n    tag_56:\n      dup2\n      sload\n      dup2\n      mstore\n      swap1\n      0x01\n      add\n      swap1\n      0x20\n      add\n      dup1\n      dup4\n      gt\n      tag_56\n      jumpi\n      dup3\n      swap1\n      sub\n      0x1f\n      and\n      dup3\n      add\n      swap2\n    tag_54:\n      pop\n      pop\n      pop\n      pop\n      pop\n      swap1\n      dup1\n      0x01\n      add\n      sload\n      swap1\n      dup1\n      0x02\n      add\n      0x00\n      swap1\n      sload\n      swap1\n      0x0100\n      exp\n      swap1\n      div\n      0xffffffffffffffffffffffffffffffffffffffff\n      and\n      swap1\n      pop\n      dup4\n      jump\t// out\n    tag_38:\n      mload(0x40)\n      dup1\n      0x60\n      add\n      0x40\n      mstore\n      dup1\n      0x60\n      dup2\n      mstore\n      0x20\n      add\n      0x00\n      dup2\n      mstore\n      0x20\n      add\n      and(0xffffffffffffffffffffffffffffffffffffffff, 0x00)\n      dup2\n      mstore\n      pop\n      swap1\n      jump\t// out\n        /* \"#utility.yul\":7:82   */\n    tag_57:\n        /* \"#utility.yul\":40:46   */\n      0x00\n        /* \"#utility.yul\":73:75   */\n      0x40\n        /* \"#utility.yul\":67:76   */\n      mload\n        /* \"#utility.yul\":57:76   */\n      swap1\n      pop\n        /* \"#utility.yul\":7:82   */\n      swap1\n      jump\t// out\n        /* \"#utility.yul\":88:205   */\n    tag_58:\n        /* \"#utility.yul\":197:198   */\n      0x00\n        /* \"#utility.yul\":194:195   */\n      0x00\n        /* \"#utility.yul\":187:199   */\n      revert\n        /* \"#utility.yul\":211:328   */\n    tag_59:\n        /* \"#utility.yul\":320:321   */\n      0x00\n        /* \"#utility.yul\":317:318   */\n      0x00\n        /* \"#utility.yul\":310:322   */\n      revert\n        /* \"#utility.yul\":334:451   */\n    tag_60:\n        /* \"#utility.yul\":443:444   */\n      0x00\n        /* \"#utility.yul\":440:441   */\n      0x00\n        /* \"#utility.yul\":433:445   */\n      revert\n        /* \"#utility.yul\":457:574   */\n    tag_61:\n        /* \"#utility.yul\":566:567   */\n      0x00\n        /* \"#utility.yul\":563:564   */\n      0x00\n        /* \"#utility.yul\":556:568   */\n      revert\n        /* \"#utility.yul\":580:682   */\n    tag_62:\n        /* \"#utility.yul\":621:627   */\n      0x00\n        /* \"#utility.yul\":672:674   */\n      0x1f\n        /* \"#utility.yul\":668:675   */\n      not\n        /* \"#utility.yul\":663:665   */\n      0x1f\n        /* \"#utility.yul\":656:661   */\n      dup4\n        /* \"#utility.yul\":652:666   */\n      add\n        /* \"#utility.yul\":648:676   */\n      and\n        /* \"#utility.yul\":638:676   */\n      swap1\n      pop\n        /* \"#utility.yul\":580:682   */\n      swap2\n      swap1\n      pop\n      jump\t// out\n        /* \"#utility.yul\":688:868   */\n    tag_63:\n        /* \"#utility.yul\":736:813   */\n      0x4e487b7100000000000000000000000000000000000000000000000000000000\n        /* \"#utility.yul\":733:734   */\n      0x00\n        /* \"#utility.yul\":726:814   */\n      mstore\n        /* \"#utility.yul\":833:837   */\n      0x41\n        /* \"#utility.yul\":830:831   */\n      0x04\n        /* \"#utility.yul\":823:838   */\n      mstore\n        /* \"#utility.yul\":857:861   */\n      0x24\n        /* \"#utility.yul\":854:855   */\n      0x00\n        /* \"#utility.yul\":847:862   */\n      revert\n        /* \"#utility.yul\":874:1155   */\n    tag_64:\n        /* \"#utility.yul\":957:984   */\n      tag_112\n        /* \"#utility.yul\":979:983   */\n      dup3\n        /* \"#utility.yul\":957:984   */\n      tag_62\n      jump\t// in\n    tag_112:\n        /* \"#utility.yul\":949:955   */\n      dup2\n        /* \"#utility.yul\":945:985   */\n      add\n        /* \"#utility.yul\":1087:1093   */\n      dup2\n        /* \"#utility.yul\":1075:1085   */\n      dup2\n        /* \"#utility.yul\":1072:1094   */\n      lt\n        /* \"#utility.yul\":1051:1069   */\n      0xffffffffffffffff\n        /* \"#utility.yul\":1039:1049   */\n      dup3\n        /* \"#utility.yul\":1036:1070   */\n      gt\n        /* \"#utility.yul\":1033:1095   */\n      or\n        /* \"#utility.yul\":1030:1118   */\n      iszero\n      tag_113\n      jumpi\n        /* \"#utility.yul\":1098:1116   */\n      tag_114\n      tag_63\n      jump\t// in\n    tag_114:\n        /* \"#utility.yul\":1030:1118   */\n    tag_113:\n        /* \"#utility.yul\":1138:1148   */\n      dup1\n        /* \"#utility.yul\":1134:1136   */\n      0x40\n        /* \"#utility.yul\":1127:1149   */\n      mstore\n        /* \"#utility.yul\":917:1155   */\n      pop\n        /* \"#utility.yul\":874:1155   */\n      pop\n      pop\n      jump\t// out\n        /* \"#utility.yul\":1161:1290   */\n    tag_65:\n        /* \"#utility.yul\":1195:1201   */\n      0x00\n        /* \"#utility.yul\":1222:1242   */\n      tag_116\n      tag_57\n      jump\t// in\n    tag_116:\n        /* \"#utility.yul\":1212:1242   */\n      swap1\n      pop\n        /* \"#utility.yul\":1251:1284   */\n      tag_117\n        /* \"#utility.yul\":1279:1283   */\n      dup3\n        /* \"#utility.yul\":1271:1277   */\n      dup3\n        /* \"#utility.yul\":1251:1284   */\n      tag_64\n      jump\t// in\n    tag_117:\n        /* \"#utility.yul\":1161:1290   */\n      swap2\n      swap1\n      pop\n      jump\t// out\n        /* \"#utility.yul\":1296:1604   */\n    tag_66:\n        /* \"#utility.yul\":1358:1362   */\n      0x00\n        /* \"#utility.yul\":1448:1466   */\n      0xffffffffffffffff\n        /* \"#utility.yul\":1440:1446   */\n      dup3\n        /* \"#utility.yul\":1437:1467   */\n      gt\n        /* \"#utility.yul\":1434:1490   */\n      iszero\n      tag_119\n      jumpi\n        /* \"#utility.yul\":1470:1488   */\n      tag_120\n      tag_63\n      jump\t// in\n    tag_120:\n        /* \"#utility.yul\":1434:1490   */\n    tag_119:\n        /* \"#utility.yul\":1508:1537   */\n      tag_121\n        /* \"#utility.yul\":1530:1536   */\n      dup3\n        /* \"#utility.yul\":1508:1537   */\n      tag_62\n      jump\t// in\n    tag_121:\n        /* \"#utility.yul\":1500:1537   */\n      swap1\n      pop\n        /* \"#utility.yul\":1592:1596   */\n      0x20\n        /* \"#utility.yul\":1586:1590   */\n      dup2\n        /* \"#utility.yul\":1582:1597   */\n      add\n        /* \"#utility.yul\":1574:1597   */\n      swap1\n      pop\n        /* \"#utility.yul\":1296:1604   */\n      swap2\n      swap1\n      pop\n      jump\t// out\n        /* \"#utility.yul\":1610:1758   */\n    tag_67:\n        /* \"#utility.yul\":1708:1714   */\n      dup3\n        /* \"#utility.yul\":1703:1706   */\n      dup2\n        /* \"#utility.yul\":1698:1701   */\n      dup4\n        /* \"#utility.yul\":1685:1715   */\n      calldatacopy\n        /* \"#utility.yul\":1749:1750   */\n      0x00\n        /* \"#utility.yul\":1740:1746   */\n      dup4\n        /* \"#utility.yul\":1735:1738   */\n      dup4\n        /* \"#utility.yul\":1731:1747   */\n      add\n        /* \"#utility.yul\":1724:1751   */\n      mstore\n        /* \"#utility.yul\":1610:1758   */\n      pop\n      pop\n      pop\n      jump\t// out\n        /* \"#utility.yul\":1764:2189   */\n    tag_68:\n        /* \"#utility.yul\":1842:1847   */\n      0x00\n        /* \"#utility.yul\":1867:1933   */\n      tag_124\n        /* \"#utility.yul\":1883:1932   */\n      tag_125\n        /* \"#utility.yul\":1925:1931   */\n      dup5\n        /* \"#utility.yul\":1883:1932   */\n      tag_66\n      jump\t// in\n    tag_125:\n        /* \"#utility.yul\":1867:1933   */\n      tag_65\n      jump\t// in\n    tag_124:\n        /* \"#utility.yul\":1858:1933   */\n      swap1\n      pop\n        /* \"#utility.yul\":1956:1962   */\n      dup3\n        /* \"#utility.yul\":1949:1954   */\n      dup2\n        /* \"#utility.yul\":1942:1963   */\n      mstore\n        /* \"#utility.yul\":1994:1998   */\n      0x20\n        /* \"#utility.yul\":1987:1992   */\n      dup2\n        /* \"#utility.yul\":1983:1999   */\n      add\n        /* \"#utility.yul\":2032:2035   */\n      dup5\n        /* \"#utility.yul\":2023:2029   */\n      dup5\n        /* \"#utility.yul\":2018:2021   */\n      dup5\n        /* \"#utility.yul\":2014:2030   */\n      add\n        /* \"#utility.yul\":2011:2036   */\n      gt\n        /* \"#utility.yul\":2008:2120   */\n      iszero\n      tag_126\n      jumpi\n        /* \"#utility.yul\":2039:2118   */\n      tag_127\n      tag_61\n      jump\t// in\n    tag_127:\n        /* \"#utility.yul\":2008:2120   */\n    tag_126:\n        /* \"#utility.yul\":2129:2183   */\n      tag_128\n        /* \"#utility.yul\":2176:2182   */\n      dup5\n        /* \"#utility.yul\":2171:2174   */\n      dup3\n        /* \"#utility.yul\":2166:2169   */\n      dup6\n        /* \"#utility.yul\":2129:2183   */\n      tag_67\n      jump\t// in\n    tag_128:\n        /* \"#utility.yul\":1848:2189   */\n      pop\n        /* \"#utility.yul\":1764:2189   */\n      swap4\n      swap3\n      pop\n      pop\n      pop\n      jump\t// out\n        /* \"#utility.yul\":2209:2549   */\n    tag_69:\n        /* \"#utility.yul\":2265:2270   */\n      0x00\n        /* \"#utility.yul\":2314:2317   */\n      dup3\n        /* \"#utility.yul\":2307:2311   */\n      0x1f\n        /* \"#utility.yul\":2299:2305   */\n      dup4\n        /* \"#utility.yul\":2295:2312   */\n      add\n        /* \"#utility.yul\":2291:2318   */\n      slt\n        /* \"#utility.yul\":2281:2403   */\n      tag_130\n      jumpi\n        /* \"#utility.yul\":2322:2401   */\n      tag_131\n      tag_60\n      jump\t// in\n    tag_131:\n        /* \"#utility.yul\":2281:2403   */\n    tag_130:\n        /* \"#utility.yul\":2439:2445   */\n      dup2\n        /* \"#utility.yul\":2426:2446   */\n      calldataload\n        /* \"#utility.yul\":2464:2543   */\n      tag_132\n        /* \"#utility.yul\":2539:2542   */\n      dup5\n        /* \"#utility.yul\":2531:2537   */\n      dup3\n        /* \"#utility.yul\":2524:2528   */\n      0x20\n        /* \"#utility.yul\":2516:2522   */\n      dup7\n        /* \"#utility.yul\":2512:2529   */\n      add\n        /* \"#utility.yul\":2464:2543   */\n      tag_68\n      jump\t// in\n    tag_132:\n        /* \"#utility.yul\":2455:2543   */\n      swap2\n      pop\n        /* \"#utility.yul\":2271:2549   */\n      pop\n        /* \"#utility.yul\":2209:2549   */\n      swap3\n      swap2\n      pop\n      pop\n      jump\t// out\n        /* \"#utility.yul\":2555:2632   */\n    tag_70:\n        /* \"#utility.yul\":2592:2599   */\n      0x00\n        /* \"#utility.yul\":2621:2626   */\n      dup2\n        /* \"#utility.yul\":2610:2626   */\n      swap1\n      pop\n        /* \"#utility.yul\":2555:2632   */\n      swap2\n      swap1\n      pop\n      jump\t// out\n        /* \"#utility.yul\":2638:2760   */\n    tag_71:\n        /* \"#utility.yul\":2711:2735   */\n      tag_135\n        /* \"#utility.yul\":2729:2734   */\n      dup2\n        /* \"#utility.yul\":2711:2735   */\n      tag_70\n      jump\t// in\n    tag_135:\n        /* \"#utility.yul\":2704:2709   */\n      dup2\n        /* \"#utility.yul\":2701:2736   */\n      eq\n        /* \"#utility.yul\":2691:2754   */\n      tag_136\n      jumpi\n        /* \"#utility.yul\":2750:2751   */\n      0x00\n        /* \"#utility.yul\":2747:2748   */\n      0x00\n        /* \"#utility.yul\":2740:2752   */\n      revert\n        /* \"#utility.yul\":2691:2754   */\n    tag_136:\n        /* \"#utility.yul\":2638:2760   */\n      pop\n      jump\t// out\n        /* \"#utility.yul\":2766:2905   */\n    tag_72:\n        /* \"#utility.yul\":2812:2817   */\n      0x00\n        /* \"#utility.yul\":2850:2856   */\n      dup2\n        /* \"#utility.yul\":2837:2857   */\n      calldataload\n        /* \"#utility.yul\":2828:2857   */\n      swap1\n      pop\n        /* \"#utility.yul\":2866:2899   */\n      tag_138\n        /* \"#utility.yul\":2893:2898   */\n      dup2\n        /* \"#utility.yul\":2866:2899   */\n      tag_71\n      jump\t// in\n    tag_138:\n        /* \"#utility.yul\":2766:2905   */\n      swap3\n      swap2\n      pop\n      pop\n      jump\t// out\n        /* \"#utility.yul\":2911:3565   */\n    tag_9:\n        /* \"#utility.yul\":2989:2995   */\n      0x00\n        /* \"#utility.yul\":2997:3003   */\n      0x00\n        /* \"#utility.yul\":3046:3048   */\n      0x40\n        /* \"#utility.yul\":3034:3043   */\n      dup4\n        /* \"#utility.yul\":3025:3032   */\n      dup6\n        /* \"#utility.yul\":3021:3044   */\n      sub\n        /* \"#utility.yul\":3017:3049   */\n      slt\n        /* \"#utility.yul\":3014:3133   */\n      iszero\n      tag_140\n      jumpi\n        /* \"#utility.yul\":3052:3131   */\n      tag_141\n      tag_58\n      jump\t// in\n    tag_141:\n        /* \"#utility.yul\":3014:3133   */\n    tag_140:\n        /* \"#utility.yul\":3200:3201   */\n      0x00\n        /* \"#utility.yul\":3189:3198   */\n      dup4\n        /* \"#utility.yul\":3185:3202   */\n      add\n        /* \"#utility.yul\":3172:3203   */\n      calldataload\n        /* \"#utility.yul\":3230:3248   */\n      0xffffffffffffffff\n        /* \"#utility.yul\":3222:3228   */\n      dup2\n        /* \"#utility.yul\":3219:3249   */\n      gt\n        /* \"#utility.yul\":3216:3333   */\n      iszero\n      tag_142\n      jumpi\n        /* \"#utility.yul\":3252:3331   */\n      tag_143\n      tag_59\n      jump\t// in\n    tag_143:\n        /* \"#utility.yul\":3216:3333   */\n    tag_142:\n        /* \"#utility.yul\":3357:3420   */\n      tag_144\n        /* \"#utility.yul\":3412:3419   */\n      dup6\n        /* \"#utility.yul\":3403:3409   */\n      dup3\n        /* \"#utility.yul\":3392:3401   */\n      dup7\n        /* \"#utility.yul\":3388:3410   */\n      add\n        /* \"#utility.yul\":3357:3420   */\n      tag_69\n      jump\t// in\n    tag_144:\n        /* \"#utility.yul\":3347:3420   */\n      swap3\n      pop\n        /* \"#utility.yul\":3143:3430   */\n      pop\n        /* \"#utility.yul\":3469:3471   */\n      0x20\n        /* \"#utility.yul\":3495:3548   */\n      tag_145\n        /* \"#utility.yul\":3540:3547   */\n      dup6\n        /* \"#utility.yul\":3531:3537   */\n      dup3\n        /* \"#utility.yul\":3520:3529   */\n      dup7\n        /* \"#utility.yul\":3516:3538   */\n      add\n        /* \"#utility.yul\":3495:3548   */\n      tag_72\n      jump\t// in\n    tag_145:\n        /* \"#utility.yul\":3485:3548   */\n      swap2\n      pop\n        /* \"#utility.yul\":3440:3558   */\n      pop\n        /* \"#utility.yul\":2911:3565   */\n      swap3\n      pop\n      swap3\n      swap1\n      pop\n      jump\t// out\n        /* \"#utility.yul\":3571:3670   */\n    tag_73:\n        /* \"#utility.yul\":3623:3629   */\n      0x00\n        /* \"#utility.yul\":3657:3662   */\n      dup2\n        /* \"#utility.yul\":3651:3663   */\n      mload\n        /* \"#utility.yul\":3641:3663   */\n      swap1\n      pop\n        /* \"#utility.yul\":3571:3670   */\n      swap2\n      swap1\n      pop\n      jump\t// out\n        /* \"#utility.yul\":3676:3845   */\n    tag_74:\n        /* \"#utility.yul\":3760:3771   */\n      0x00\n        /* \"#utility.yul\":3794:3800   */\n      dup3\n        /* \"#utility.yul\":3789:3792   */\n      dup3\n        /* \"#utility.yul\":3782:3801   */\n      mstore\n        /* \"#utility.yul\":3834:3838   */\n      0x20\n        /* \"#utility.yul\":3829:3832   */\n      dup3\n        /* \"#utility.yul\":3825:3839   */\n      add\n        /* \"#utility.yul\":3810:3839   */\n      swap1\n      pop\n        /* \"#utility.yul\":3676:3845   */\n      swap3\n      swap2\n      pop\n      pop\n      jump\t// out\n        /* \"#utility.yul\":3851:3990   */\n    tag_75:\n        /* \"#utility.yul\":3940:3946   */\n      dup3\n        /* \"#utility.yul\":3935:3938   */\n      dup2\n        /* \"#utility.yul\":3930:3933   */\n      dup4\n        /* \"#utility.yul\":3924:3947   */\n      mcopy\n        /* \"#utility.yul\":3981:3982   */\n      0x00\n        /* \"#utility.yul\":3972:3978   */\n      dup4\n        /* \"#utility.yul\":3967:3970   */\n      dup4\n        /* \"#utility.yul\":3963:3979   */\n      add\n        /* \"#utility.yul\":3956:3983   */\n      mstore\n        /* \"#utility.yul\":3851:3990   */\n      pop\n      pop\n      pop\n      jump\t// out\n        /* \"#utility.yul\":3996:4373   */\n    tag_76:\n        /* \"#utility.yul\":4084:4087   */\n      0x00\n        /* \"#utility.yul\":4112:4151   */\n      tag_150\n        /* \"#utility.yul\":4145:4150   */\n      dup3\n        /* \"#utility.yul\":4112:4151   */\n      tag_73\n      jump\t// in\n    tag_150:\n        /* \"#utility.yul\":4167:4238   */\n      tag_151\n        /* \"#utility.yul\":4231:4237   */\n      dup2\n        /* \"#utility.yul\":4226:4229   */\n      dup6\n        /* \"#utility.yul\":4167:4238   */\n      tag_74\n      jump\t// in\n    tag_151:\n        /* \"#utility.yul\":4160:4238   */\n      swap4\n      pop\n        /* \"#utility.yul\":4247:4312   */\n      tag_152\n        /* \"#utility.yul\":4305:4311   */\n      dup2\n        /* \"#utility.yul\":4300:4303   */\n      dup6\n        /* \"#utility.yul\":4293:4297   */\n      0x20\n        /* \"#utility.yul\":4286:4291   */\n      dup7\n        /* \"#utility.yul\":4282:4298   */\n      add\n        /* \"#utility.yul\":4247:4312   */\n      tag_75\n      jump\t// in\n    tag_152:\n        /* \"#utility.yul\":4337:4366   */\n      tag_153\n        /* \"#utility.yul\":4359:4365   */\n      dup2\n        /* \"#utility.yul\":4337:4366   */\n      tag_62\n      jump\t// in\n    tag_153:\n        /* \"#utility.yul\":4332:4335   */\n      dup5\n        /* \"#utility.yul\":4328:4367   */\n      add\n        /* \"#utility.yul\":4321:4367   */\n      swap2\n      pop\n        /* \"#utility.yul\":4088:4373   */\n      pop\n        /* \"#utility.yul\":3996:4373   */\n      swap3\n      swap2\n      pop\n      pop\n      jump\t// out\n        /* \"#utility.yul\":4379:4497   */\n    tag_77:\n        /* \"#utility.yul\":4466:4490   */\n      tag_155\n        /* \"#utility.yul\":4484:4489   */\n      dup2\n        /* \"#utility.yul\":4466:4490   */\n      tag_70\n      jump\t// in\n    tag_155:\n        /* \"#utility.yul\":4461:4464   */\n      dup3\n        /* \"#utility.yul\":4454:4491   */\n      mstore\n        /* \"#utility.yul\":4379:4497   */\n      pop\n      pop\n      jump\t// out\n        /* \"#utility.yul\":4503:4629   */\n    tag_78:\n        /* \"#utility.yul\":4540:4547   */\n      0x00\n        /* \"#utility.yul\":4580:4622   */\n      0xffffffffffffffffffffffffffffffffffffffff\n        /* \"#utility.yul\":4573:4578   */\n      dup3\n        /* \"#utility.yul\":4569:4623   */\n      and\n        /* \"#utility.yul\":4558:4623   */\n      swap1\n      pop\n        /* \"#utility.yul\":4503:4629   */\n      swap2\n      swap1\n      pop\n      jump\t// out\n        /* \"#utility.yul\":4635:4731   */\n    tag_79:\n        /* \"#utility.yul\":4672:4679   */\n      0x00\n        /* \"#utility.yul\":4701:4725   */\n      tag_158\n        /* \"#utility.yul\":4719:4724   */\n      dup3\n        /* \"#utility.yul\":4701:4725   */\n      tag_78\n      jump\t// in\n    tag_158:\n        /* \"#utility.yul\":4690:4725   */\n      swap1\n      pop\n        /* \"#utility.yul\":4635:4731   */\n      swap2\n      swap1\n      pop\n      jump\t// out\n        /* \"#utility.yul\":4737:4855   */\n    tag_80:\n        /* \"#utility.yul\":4824:4848   */\n      tag_160\n        /* \"#utility.yul\":4842:4847   */\n      dup2\n        /* \"#utility.yul\":4824:4848   */\n      tag_79\n      jump\t// in\n    tag_160:\n        /* \"#utility.yul\":4819:4822   */\n      dup3\n        /* \"#utility.yul\":4812:4849   */\n      mstore\n        /* \"#utility.yul\":4737:4855   */\n      pop\n      pop\n      jump\t// out\n        /* \"#utility.yul\":4861:5394   */\n    tag_14:\n        /* \"#utility.yul\":5030:5034   */\n      0x00\n        /* \"#utility.yul\":5068:5070   */\n      0x60\n        /* \"#utility.yul\":5057:5066   */\n      dup3\n        /* \"#utility.yul\":5053:5071   */\n      add\n        /* \"#utility.yul\":5045:5071   */\n      swap1\n      pop\n        /* \"#utility.yul\":5117:5126   */\n      dup2\n        /* \"#utility.yul\":5111:5115   */\n      dup2\n        /* \"#utility.yul\":5107:5127   */\n      sub\n        /* \"#utility.yul\":5103:5104   */\n      0x00\n        /* \"#utility.yul\":5092:5101   */\n      dup4\n        /* \"#utility.yul\":5088:5105   */\n      add\n        /* \"#utility.yul\":5081:5128   */\n      mstore\n        /* \"#utility.yul\":5145:5223   */\n      tag_162\n        /* \"#utility.yul\":5218:5222   */\n      dup2\n        /* \"#utility.yul\":5209:5215   */\n      dup7\n        /* \"#utility.yul\":5145:5223   */\n      tag_76\n      jump\t// in\n    tag_162:\n        /* \"#utility.yul\":5137:5223   */\n      swap1\n      pop\n        /* \"#utility.yul\":5233:5305   */\n      tag_163\n        /* \"#utility.yul\":5301:5303   */\n      0x20\n        /* \"#utility.yul\":5290:5299   */\n      dup4\n        /* \"#utility.yul\":5286:5304   */\n      add\n        /* \"#utility.yul\":5277:5283   */\n      dup6\n        /* \"#utility.yul\":5233:5305   */\n      tag_77\n      jump\t// in\n    tag_163:\n        /* \"#utility.yul\":5315:5387   */\n      tag_164\n        /* \"#utility.yul\":5383:5385   */\n      0x40\n        /* \"#utility.yul\":5372:5381   */\n      dup4\n        /* \"#utility.yul\":5368:5386   */\n      add\n        /* \"#utility.yul\":5359:5365   */\n      dup5\n        /* \"#utility.yul\":5315:5387   */\n      tag_80\n      jump\t// in\n    tag_164:\n        /* \"#utility.yul\":4861:5394   */\n      swap5\n      swap4\n      pop\n      pop\n      pop\n      pop\n      jump\t// out\n        /* \"#utility.yul\":5400:5729   */\n    tag_17:\n        /* \"#utility.yul\":5459:5465   */\n      0x00\n        /* \"#utility.yul\":5508:5510   */\n      0x20\n        /* \"#utility.yul\":5496:5505   */\n      dup3\n        /* \"#utility.yul\":5487:5494   */\n      dup5\n        /* \"#utility.yul\":5483:5506   */\n      sub\n        /* \"#utility.yul\":5479:5511   */\n      slt\n        /* \"#utility.yul\":5476:5595   */\n      iszero\n      tag_166\n      jumpi\n        /* \"#utility.yul\":5514:5593   */\n      tag_167\n      tag_58\n      jump\t// in\n    tag_167:\n        /* \"#utility.yul\":5476:5595   */\n    tag_166:\n        /* \"#utility.yul\":5634:5635   */\n      0x00\n        /* \"#utility.yul\":5659:5712   */\n      tag_168\n        /* \"#utility.yul\":5704:5711   */\n      dup5\n        /* \"#utility.yul\":5695:5701   */\n      dup3\n        /* \"#utility.yul\":5684:5693   */\n      dup6\n        /* \"#utility.yul\":5680:5702   */\n      add\n        /* \"#utility.yul\":5659:5712   */\n      tag_72\n      jump\t// in\n    tag_168:\n        /* \"#utility.yul\":5649:5712   */\n      swap2\n      pop\n        /* \"#utility.yul\":5605:5722   */\n      pop\n        /* \"#utility.yul\":5400:5729   */\n      swap3\n      swap2\n      pop\n      pop\n      jump\t// out\n        /* \"#utility.yul\":5735:5894   */\n    tag_81:\n        /* \"#utility.yul\":5809:5820   */\n      0x00\n        /* \"#utility.yul\":5843:5849   */\n      dup3\n        /* \"#utility.yul\":5838:5841   */\n      dup3\n        /* \"#utility.yul\":5831:5850   */\n      mstore\n        /* \"#utility.yul\":5883:5887   */\n      0x20\n        /* \"#utility.yul\":5878:5881   */\n      dup3\n        /* \"#utility.yul\":5874:5888   */\n      add\n        /* \"#utility.yul\":5859:5888   */\n      swap1\n      pop\n        /* \"#utility.yul\":5735:5894   */\n      swap3\n      swap2\n      pop\n      pop\n      jump\t// out\n        /* \"#utility.yul\":5900:6257   */\n    tag_82:\n        /* \"#utility.yul\":5978:5981   */\n      0x00\n        /* \"#utility.yul\":6006:6045   */\n      tag_171\n        /* \"#utility.yul\":6039:6044   */\n      dup3\n        /* \"#utility.yul\":6006:6045   */\n      tag_73\n      jump\t// in\n    tag_171:\n        /* \"#utility.yul\":6061:6122   */\n      tag_172\n        /* \"#utility.yul\":6115:6121   */\n      dup2\n        /* \"#utility.yul\":6110:6113   */\n      dup6\n        /* \"#utility.yul\":6061:6122   */\n      tag_81\n      jump\t// in\n    tag_172:\n        /* \"#utility.yul\":6054:6122   */\n      swap4\n      pop\n        /* \"#utility.yul\":6131:6196   */\n      tag_173\n        /* \"#utility.yul\":6189:6195   */\n      dup2\n        /* \"#utility.yul\":6184:6187   */\n      dup6\n        /* \"#utility.yul\":6177:6181   */\n      0x20\n        /* \"#utility.yul\":6170:6175   */\n      dup7\n        /* \"#utility.yul\":6166:6182   */\n      add\n        /* \"#utility.yul\":6131:6196   */\n      tag_75\n      jump\t// in\n    tag_173:\n        /* \"#utility.yul\":6221:6250   */\n      tag_174\n        /* \"#utility.yul\":6243:6249   */\n      dup2\n        /* \"#utility.yul\":6221:6250   */\n      tag_62\n      jump\t// in\n    tag_174:\n        /* \"#utility.yul\":6216:6219   */\n      dup5\n        /* \"#utility.yul\":6212:6251   */\n      add\n        /* \"#utility.yul\":6205:6251   */\n      swap2\n      pop\n        /* \"#utility.yul\":5982:6257   */\n      pop\n        /* \"#utility.yul\":5900:6257   */\n      swap3\n      swap2\n      pop\n      pop\n      jump\t// out\n        /* \"#utility.yul\":6263:6371   */\n    tag_83:\n        /* \"#utility.yul\":6340:6364   */\n      tag_176\n        /* \"#utility.yul\":6358:6363   */\n      dup2\n        /* \"#utility.yul\":6340:6364   */\n      tag_70\n      jump\t// in\n    tag_176:\n        /* \"#utility.yul\":6335:6338   */\n      dup3\n        /* \"#utility.yul\":6328:6365   */\n      mstore\n        /* \"#utility.yul\":6263:6371   */\n      pop\n      pop\n      jump\t// out\n        /* \"#utility.yul\":6377:6485   */\n    tag_84:\n        /* \"#utility.yul\":6454:6478   */\n      tag_178\n        /* \"#utility.yul\":6472:6477   */\n      dup2\n        /* \"#utility.yul\":6454:6478   */\n      tag_79\n      jump\t// in\n    tag_178:\n        /* \"#utility.yul\":6449:6452   */\n      dup3\n        /* \"#utility.yul\":6442:6479   */\n      mstore\n        /* \"#utility.yul\":6377:6485   */\n      pop\n      pop\n      jump\t// out\n        /* \"#utility.yul\":6547:7318   */\n    tag_85:\n        /* \"#utility.yul\":6658:6661   */\n      0x00\n        /* \"#utility.yul\":6694:6698   */\n      0x60\n        /* \"#utility.yul\":6689:6692   */\n      dup4\n        /* \"#utility.yul\":6685:6699   */\n      add\n        /* \"#utility.yul\":6781:6785   */\n      0x00\n        /* \"#utility.yul\":6774:6779   */\n      dup4\n        /* \"#utility.yul\":6770:6786   */\n      add\n        /* \"#utility.yul\":6764:6787   */\n      mload\n        /* \"#utility.yul\":6834:6837   */\n      dup5\n        /* \"#utility.yul\":6828:6832   */\n      dup3\n        /* \"#utility.yul\":6824:6838   */\n      sub\n        /* \"#utility.yul\":6817:6821   */\n      0x00\n        /* \"#utility.yul\":6812:6815   */\n      dup7\n        /* \"#utility.yul\":6808:6822   */\n      add\n        /* \"#utility.yul\":6801:6839   */\n      mstore\n        /* \"#utility.yul\":6860:6933   */\n      tag_180\n        /* \"#utility.yul\":6928:6932   */\n      dup3\n        /* \"#utility.yul\":6914:6926   */\n      dup3\n        /* \"#utility.yul\":6860:6933   */\n      tag_82\n      jump\t// in\n    tag_180:\n        /* \"#utility.yul\":6852:6933   */\n      swap2\n      pop\n        /* \"#utility.yul\":6709:6944   */\n      pop\n        /* \"#utility.yul\":7025:7029   */\n      0x20\n        /* \"#utility.yul\":7018:7023   */\n      dup4\n        /* \"#utility.yul\":7014:7030   */\n      add\n        /* \"#utility.yul\":7008:7031   */\n      mload\n        /* \"#utility.yul\":7044:7107   */\n      tag_181\n        /* \"#utility.yul\":7101:7105   */\n      0x20\n        /* \"#utility.yul\":7096:7099   */\n      dup7\n        /* \"#utility.yul\":7092:7106   */\n      add\n        /* \"#utility.yul\":7078:7090   */\n      dup3\n        /* \"#utility.yul\":7044:7107   */\n      tag_83\n      jump\t// in\n    tag_181:\n        /* \"#utility.yul\":6954:7117   */\n      pop\n        /* \"#utility.yul\":7199:7203   */\n      0x40\n        /* \"#utility.yul\":7192:7197   */\n      dup4\n        /* \"#utility.yul\":7188:7204   */\n      add\n        /* \"#utility.yul\":7182:7205   */\n      mload\n        /* \"#utility.yul\":7218:7281   */\n      tag_182\n        /* \"#utility.yul\":7275:7279   */\n      0x40\n        /* \"#utility.yul\":7270:7273   */\n      dup7\n        /* \"#utility.yul\":7266:7280   */\n      add\n        /* \"#utility.yul\":7252:7264   */\n      dup3\n        /* \"#utility.yul\":7218:7281   */\n      tag_84\n      jump\t// in\n    tag_182:\n        /* \"#utility.yul\":7127:7291   */\n      pop\n        /* \"#utility.yul\":7308:7312   */\n      dup1\n        /* \"#utility.yul\":7301:7312   */\n      swap2\n      pop\n        /* \"#utility.yul\":6663:7318   */\n      pop\n        /* \"#utility.yul\":6547:7318   */\n      swap3\n      swap2\n      pop\n      pop\n      jump\t// out\n        /* \"#utility.yul\":7324:7681   */\n    tag_20:\n        /* \"#utility.yul\":7459:7463   */\n      0x00\n        /* \"#utility.yul\":7497:7499   */\n      0x20\n        /* \"#utility.yul\":7486:7495   */\n      dup3\n        /* \"#utility.yul\":7482:7500   */\n      add\n        /* \"#utility.yul\":7474:7500   */\n      swap1\n      pop\n        /* \"#utility.yul\":7546:7555   */\n      dup2\n        /* \"#utility.yul\":7540:7544   */\n      dup2\n        /* \"#utility.yul\":7536:7556   */\n      sub\n        /* \"#utility.yul\":7532:7533   */\n      0x00\n        /* \"#utility.yul\":7521:7530   */\n      dup4\n        /* \"#utility.yul\":7517:7534   */\n      add\n        /* \"#utility.yul\":7510:7557   */\n      mstore\n        /* \"#utility.yul\":7574:7674   */\n      tag_184\n        /* \"#utility.yul\":7669:7673   */\n      dup2\n        /* \"#utility.yul\":7660:7666   */\n      dup5\n        /* \"#utility.yul\":7574:7674   */\n      tag_85\n      jump\t// in\n    tag_184:\n        /* \"#utility.yul\":7566:7674   */\n      swap1\n      pop\n        /* \"#utility.yul\":7324:7681   */\n      swap3\n      swap2\n      pop\n      pop\n      jump\t// out\n        /* \"#utility.yul\":7687:7867   */\n    tag_86:\n        /* \"#utility.yul\":7735:7812   */\n      0x4e487b7100000000000000000000000000000000000000000000000000000000\n        /* \"#utility.yul\":7732:7733   */\n      0x00\n        /* \"#utility.yul\":7725:7813   */\n      mstore\n        /* \"#utility.yul\":7832:7836   */\n      0x22\n        /* \"#utility.yul\":7829:7830   */\n      0x04\n        /* \"#utility.yul\":7822:7837   */\n      mstore\n        /* \"#utility.yul\":7856:7860   */\n      0x24\n        /* \"#utility.yul\":7853:7854   */\n      0x00\n        /* \"#utility.yul\":7846:7861   */\n      revert\n        /* \"#utility.yul\":7873:8193   */\n    tag_32:\n        /* \"#utility.yul\":7917:7923   */\n      0x00\n        /* \"#utility.yul\":7954:7955   */\n      0x02\n        /* \"#utility.yul\":7948:7952   */\n      dup3\n        /* \"#utility.yul\":7944:7956   */\n      div\n        /* \"#utility.yul\":7934:7956   */\n      swap1\n      pop\n        /* \"#utility.yul\":8001:8002   */\n      0x01\n        /* \"#utility.yul\":7995:7999   */\n      dup3\n        /* \"#utility.yul\":7991:8003   */\n      and\n        /* \"#utility.yul\":8022:8040   */\n      dup1\n        /* \"#utility.yul\":8012:8093   */\n      tag_187\n      jumpi\n        /* \"#utility.yul\":8078:8082   */\n      0x7f\n        /* \"#utility.yul\":8070:8076   */\n      dup3\n        /* \"#utility.yul\":8066:8083   */\n      and\n        /* \"#utility.yul\":8056:8083   */\n      swap2\n      pop\n        /* \"#utility.yul\":8012:8093   */\n    tag_187:\n        /* \"#utility.yul\":8140:8142   */\n      0x20\n        /* \"#utility.yul\":8132:8138   */\n      dup3\n        /* \"#utility.yul\":8129:8143   */\n      lt\n        /* \"#utility.yul\":8109:8127   */\n      dup2\n        /* \"#utility.yul\":8106:8144   */\n      sub\n        /* \"#utility.yul\":8103:8187   */\n      tag_188\n      jumpi\n        /* \"#utility.yul\":8159:8177   */\n      tag_189\n      tag_86\n      jump\t// in\n    tag_189:\n        /* \"#utility.yul\":8103:8187   */\n    tag_188:\n        /* \"#utility.yul\":7924:8193   */\n      pop\n        /* \"#utility.yul\":7873:8193   */\n      swap2\n      swap1\n      pop\n      jump\t// out\n        /* \"#utility.yul\":8199:8340   */\n    tag_87:\n        /* \"#utility.yul\":8248:8252   */\n      0x00\n        /* \"#utility.yul\":8271:8274   */\n      dup2\n        /* \"#utility.yul\":8263:8274   */\n      swap1\n      pop\n        /* \"#utility.yul\":8294:8297   */\n      dup2\n        /* \"#utility.yul\":8291:8292   */\n      0x00\n        /* \"#utility.yul\":8284:8298   */\n      mstore\n        /* \"#utility.yul\":8328:8332   */\n      0x20\n        /* \"#utility.yul\":8325:8326   */\n      0x00\n        /* \"#utility.yul\":8315:8333   */\n      keccak256\n        /* \"#utility.yul\":8307:8333   */\n      swap1\n      pop\n        /* \"#utility.yul\":8199:8340   */\n      swap2\n      swap1\n      pop\n      jump\t// out\n        /* \"#utility.yul\":8346:8439   */\n    tag_88:\n        /* \"#utility.yul\":8383:8389   */\n      0x00\n        /* \"#utility.yul\":8430:8432   */\n      0x20\n        /* \"#utility.yul\":8425:8427   */\n      0x1f\n        /* \"#utility.yul\":8418:8423   */\n      dup4\n        /* \"#utility.yul\":8414:8428   */\n      add\n        /* \"#utility.yul\":8410:8433   */\n      div\n        /* \"#utility.yul\":8400:8433   */\n      swap1\n      pop\n        /* \"#utility.yul\":8346:8439   */\n      swap2\n      swap1\n      pop\n      jump\t// out\n        /* \"#utility.yul\":8445:8552   */\n    tag_89:\n        /* \"#utility.yul\":8489:8497   */\n      0x00\n        /* \"#utility.yul\":8539:8544   */\n      dup3\n        /* \"#utility.yul\":8533:8537   */\n      dup3\n        /* \"#utility.yul\":8529:8545   */\n      shl\n        /* \"#utility.yul\":8508:8545   */\n      swap1\n      pop\n        /* \"#utility.yul\":8445:8552   */\n      swap3\n      swap2\n      pop\n      pop\n      jump\t// out\n        /* \"#utility.yul\":8558:8951   */\n    tag_90:\n        /* \"#utility.yul\":8627:8633   */\n      0x00\n        /* \"#utility.yul\":8677:8678   */\n      0x08\n        /* \"#utility.yul\":8665:8675   */\n      dup4\n        /* \"#utility.yul\":8661:8679   */\n      mul\n        /* \"#utility.yul\":8700:8797   */\n      tag_194\n        /* \"#utility.yul\":8730:8796   */\n      0xffffffffffffffffffffffffffffffffffffffffffffffffffffffffffffffff\n        /* \"#utility.yul\":8719:8728   */\n      dup3\n        /* \"#utility.yul\":8700:8797   */\n      tag_89\n      jump\t// in\n    tag_194:\n        /* \"#utility.yul\":8818:8857   */\n      tag_195\n        /* \"#utility.yul\":8848:8856   */\n      dup7\n        /* \"#utility.yul\":8837:8846   */\n      dup4\n        /* \"#utility.yul\":8818:8857   */\n      tag_89\n      jump\t// in\n    tag_195:\n        /* \"#utility.yul\":8806:8857   */\n      swap6\n      pop\n        /* \"#utility.yul\":8890:8894   */\n      dup1\n        /* \"#utility.yul\":8886:8895   */\n      not\n        /* \"#utility.yul\":8879:8884   */\n      dup5\n        /* \"#utility.yul\":8875:8896   */\n      and\n        /* \"#utility.yul\":8866:8896   */\n      swap4\n      pop\n        /* \"#utility.yul\":8939:8943   */\n      dup1\n        /* \"#utility.yul\":8929:8937   */\n      dup7\n        /* \"#utility.yul\":8925:8944   */\n      and\n        /* \"#utility.yul\":8918:8923   */\n      dup5\n        /* \"#utility.yul\":8915:8945   */\n      or\n        /* \"#utility.yul\":8905:8945   */\n      swap3\n      pop\n        /* \"#utility.yul\":8634:8951   */\n      pop\n      pop\n        /* \"#utility.yul\":8558:8951   */\n      swap4\n      swap3\n      pop\n      pop\n      pop\n      jump\t// out\n        /* \"#utility.yul\":8957:9017   */\n    tag_91:\n        /* \"#utility.yul\":8985:8988   */\n      0x00\n        /* \"#utility.yul\":9006:9011   */\n      dup2\n        /* \"#utility.yul\":8999:9011   */\n      swap1\n      pop\n        /* \"#utility.yul\":8957:9017   */\n      swap2\n      swap1\n      pop\n      jump\t// out\n        /* \"#utility.yul\":9023:9165   */\n    tag_92:\n        /* \"#utility.yul\":9073:9082   */\n      0x00\n        /* \"#utility.yul\":9106:9159   */\n      tag_198\n        /* \"#utility.yul\":9124:9158   */\n      tag_199\n        /* \"#utility.yul\":9133:9157   */\n      tag_200\n        /* \"#utility.yul\":9151:9156   */\n      dup5\n        /* \"#utility.yul\":9133:9157   */\n      tag_70\n      jump\t// in\n    tag_200:\n        /* \"#utility.yul\":9124:9158   */\n      tag_91\n      jump\t// in\n    tag_199:\n        /* \"#utility.yul\":9106:9159   */\n      tag_70\n      jump\t// in\n    tag_198:\n        /* \"#utility.yul\":9093:9159   */\n      swap1\n      pop\n        /* \"#utility.yul\":9023:9165   */\n      swap2\n      swap1\n      pop\n      jump\t// out\n        /* \"#utility.yul\":9171:9246   */\n    tag_93:\n        /* \"#utility.yul\":9214:9217   */\n      0x00\n        /* \"#utility.yul\":9235:9240   */\n      dup2\n        /* \"#utility.yul\":9228:9240   */\n      swap1\n      pop\n        /* \"#utility.yul\":9171:9246   */\n      swap2\n      swap1\n      pop\n      jump\t// out\n        /* \"#utility.yul\":9252:9521   */\n    tag_94:\n        /* \"#utility.yul\":9362:9401   */\n      tag_203\n        /* \"#utility.yul\":9393:9400   */\n      dup4\n        /* \"#utility.yul\":9362:9401   */\n      tag_92\n      jump\t// in\n    tag_203:\n        /* \"#utility.yul\":9423:9514   */\n      tag_204\n        /* \"#utility.yul\":9472:9513   */\n      tag_205\n        /* \"#utility.yul\":9496:9512   */\n      dup3\n        /* \"#utility.yul\":9472:9513   */\n      tag_93\n      jump\t// in\n    tag_205:\n        /* \"#utility.yul\":9464:9470   */\n      dup5\n        /* \"#utility.yul\":9457:9461   */\n      dup5\n        /* \"#utility.yul\":9451:9462   */\n      sload\n        /* \"#utility.yul\":9423:9514   */\n      tag_90\n      jump\t// in\n    tag_204:\n        /* \"#utility.yul\":9417:9421   */\n      dup3\n        /* \"#utility.yul\":9410:9515   */\n      sstore\n        /* \"#utility.yul\":9328:9521   */\n      pop\n        /* \"#utility.yul\":9252:9521   */\n      pop\n      pop\n      pop\n      jump\t// out\n        /* \"#utility.yul\":9527:9600   */\n    tag_95:\n        /* \"#utility.yul\":9572:9575   */\n      0x00\n        /* \"#utility.yul\":9593:9594   */\n      0x00\n        /* \"#utility.yul\":9586:9594   */\n      swap1\n      pop\n        /* \"#utility.yul\":9527:9600   */\n      swap1\n      jump\t// out\n        /* \"#utility.yul\":9606:9795   */\n    tag_96:\n        /* \"#utility.yul\":9683:9715   */\n      tag_208\n      tag_95\n      jump\t// in\n    tag_208:\n        /* \"#utility.yul\":9724:9789   */\n      tag_209\n        /* \"#utility.yul\":9782:9788   */\n      dup2\n        /* \"#utility.yul\":9774:9780   */\n      dup5\n        /* \"#utility.yul\":9768:9772   */\n      dup5\n        /* \"#utility.yul\":9724:9789   */\n      tag_94\n      jump\t// in\n    tag_209:\n        /* \"#utility.yul\":9659:9795   */\n      pop\n        /* \"#utility.yul\":9606:9795   */\n      pop\n      pop\n      jump\t// out\n        /* \"#utility.yul\":9801:9987   */\n    tag_97:\n        /* \"#utility.yul\":9861:9981   */\n    tag_211:\n        /* \"#utility.yul\":9878:9881   */\n      dup2\n        /* \"#utility.yul\":9871:9876   */\n      dup2\n        /* \"#utility.yul\":9868:9882   */\n      lt\n        /* \"#utility.yul\":9861:9981   */\n      iszero\n      tag_213\n      jumpi\n        /* \"#utility.yul\":9932:9971   */\n      tag_214\n        /* \"#utility.yul\":9969:9970   */\n      0x00\n        /* \"#utility.yul\":9962:9967   */\n      dup3\n        /* \"#utility.yul\":9932:9971   */\n      tag_96\n      jump\t// in\n    tag_214:\n        /* \"#utility.yul\":9905:9906   */\n      0x01\n        /* \"#utility.yul\":9898:9903   */\n      dup2\n        /* \"#utility.yul\":9894:9907   */\n      add\n        /* \"#utility.yul\":9885:9907   */\n      swap1\n      pop\n        /* \"#utility.yul\":9861:9981   */\n      jump(tag_211)\n    tag_213:\n        /* \"#utility.yul\":9801:9987   */\n      pop\n      pop\n      jump\t// out\n        /* \"#utility.yul\":9993:10536   */\n    tag_98:\n        /* \"#utility.yul\":10094:10096   */\n      0x1f\n        /* \"#utility.yul\":10089:10092   */\n      dup3\n        /* \"#utility.yul\":10086:10097   */\n      gt\n        /* \"#utility.yul\":10083:10529   */\n      iszero\n      tag_216\n      jumpi\n        /* \"#utility.yul\":10128:10166   */\n      tag_217\n        /* \"#utility.yul\":10160:10165   */\n      dup2\n        /* \"#utility.yul\":10128:10166   */\n      tag_87\n      jump\t// in\n    tag_217:\n        /* \"#utility.yul\":10212:10241   */\n      tag_218\n        /* \"#utility.yul\":10230:10240   */\n      dup5\n        /* \"#utility.yul\":10212:10241   */\n      tag_88\n      jump\t// in\n    tag_218:\n        /* \"#utility.yul\":10202:10210   */\n      dup2\n        /* \"#utility.yul\":10198:10242   */\n      add\n        /* \"#utility.yul\":10395:10397   */\n      0x20\n        /* \"#utility.yul\":10383:10393   */\n      dup6\n        /* \"#utility.yul\":10380:10398   */\n      lt\n        /* \"#utility.yul\":10377:10426   */\n      iszero\n      tag_219\n      jumpi\n        /* \"#utility.yul\":10416:10424   */\n      dup2\n        /* \"#utility.yul\":10401:10424   */\n      swap1\n      pop\n        /* \"#utility.yul\":10377:10426   */\n    tag_219:\n        /* \"#utility.yul\":10439:10519   */\n      tag_220\n        /* \"#utility.yul\":10495:10517   */\n      tag_221\n        /* \"#utility.yul\":10513:10516   */\n      dup6\n        /* \"#utility.yul\":10495:10517   */\n      tag_88\n      jump\t// in\n    tag_221:\n        /* \"#utility.yul\":10485:10493   */\n      dup4\n        /* \"#utility.yul\":10481:10518   */\n      add\n        /* \"#utility.yul\":10468:10479   */\n      dup3\n        /* \"#utility.yul\":10439:10519   */\n      tag_97\n      jump\t// in\n    tag_220:\n        /* \"#utility.yul\":10098:10529   */\n      pop\n      pop\n        /* \"#utility.yul\":10083:10529   */\n    tag_216:\n        /* \"#utility.yul\":9993:10536   */\n      pop\n      pop\n      pop\n      jump\t// out\n        /* \"#utility.yul\":10542:10659   */\n    tag_99:\n        /* \"#utility.yul\":10596:10604   */\n      0x00\n        /* \"#utility.yul\":10646:10651   */\n      dup3\n        /* \"#utility.yul\":10640:10644   */\n      dup3\n        /* \"#utility.yul\":10636:10652   */\n      shr\n        /* \"#utility.yul\":10615:10652   */\n      swap1\n      pop\n        /* \"#utility.yul\":10542:10659   */\n      swap3\n      swap2\n      pop\n      pop\n      jump\t// out\n        /* \"#utility.yul\":10665:10834   */\n    tag_100:\n        /* \"#utility.yul\":10709:10715   */\n      0x00\n        /* \"#utility.yul\":10742:10793   */\n      tag_224\n        /* \"#utility.yul\":10790:10791   */\n      0x00\n        /* \"#utility.yul\":10786:10792   */\n      not\n        /* \"#utility.yul\":10778:10783   */\n      dup5\n        /* \"#utility.yul\":10775:10776   */\n      0x08\n        /* \"#utility.yul\":10771:10784   */\n      mul\n        /* \"#utility.yul\":10742:10793   */\n      tag_99\n      jump\t// in\n    tag_224:\n        /* \"#utility.yul\":10738:10794   */\n      not\n        /* \"#utility.yul\":10823:10827   */\n      dup1\n        /* \"#utility.yul\":10817:10821   */\n      dup4\n        /* \"#utility.yul\":10813:10828   */\n      and\n        /* \"#utility.yul\":10803:10828   */\n      swap2\n      pop\n        /* \"#utility.yul\":10716:10834   */\n      pop\n        /* \"#utility.yul\":10665:10834   */\n      swap3\n      swap2\n      pop\n      pop\n      jump\t// out\n        /* \"#utility.yul\":10839:11134   */\n    tag_101:\n        /* \"#utility.yul\":10915:10919   */\n      0x00\n        /* \"#utility.yul\":11061:11090   */\n      tag_226\n        /* \"#utility.yul\":11086:11089   */\n      dup4\n        /* \"#utility.yul\":11080:11084   */\n      dup4\n        /* \"#utility.yul\":11061:11090   */\n      tag_100\n      jump\t// in\n    tag_226:\n        /* \"#utility.yul\":11053:11090   */\n      swap2\n      pop\n        /* \"#utility.yul\":11123:11126   */\n      dup3\n        /* \"#utility.yul\":11120:11121   */\n      0x02\n        /* \"#utility.yul\":11116:11127   */\n      mul\n        /* \"#utility.yul\":11110:11114   */\n      dup3\n        /* \"#utility.yul\":11107:11128   */\n      or\n        /* \"#utility.yul\":11099:11128   */\n      swap1\n      pop\n        /* \"#utility.yul\":10839:11134   */\n      swap3\n      swap2\n      pop\n      pop\n      jump\t// out\n        /* \"#utility.yul\":11139:12534   */\n    tag_27:\n        /* \"#utility.yul\":11256:11293   */\n      tag_228\n        /* \"#utility.yul\":11289:11292   */\n      dup3\n        /* \"#utility.yul\":11256:11293   */\n      tag_73\n      jump\t// in\n    tag_228:\n        /* \"#utility.yul\":11358:11376   */\n      0xffffffffffffffff\n        /* \"#utility.yul\":11350:11356   */\n      dup2\n        /* \"#utility.yul\":11347:11377   */\n      gt\n        /* \"#utility.yul\":11344:11400   */\n      iszero\n      tag_229\n      jumpi\n        /* \"#utility.yul\":11380:11398   */\n      tag_230\n      tag_63\n      jump\t// in\n    tag_230:\n        /* \"#utility.yul\":11344:11400   */\n    tag_229:\n        /* \"#utility.yul\":11424:11462   */\n      tag_231\n        /* \"#utility.yul\":11456:11460   */\n      dup3\n        /* \"#utility.yul\":11450:11461   */\n      sload\n        /* \"#utility.yul\":11424:11462   */\n      tag_32\n      jump\t// in\n    tag_231:\n        /* \"#utility.yul\":11509:11576   */\n      tag_232\n        /* \"#utility.yul\":11569:11575   */\n      dup3\n        /* \"#utility.yul\":11561:11567   */\n      dup3\n        /* \"#utility.yul\":11555:11559   */\n      dup6\n        /* \"#utility.yul\":11509:11576   */\n      tag_98\n      jump\t// in\n    tag_232:\n        /* \"#utility.yul\":11603:11604   */\n      0x00\n        /* \"#utility.yul\":11627:11631   */\n      0x20\n        /* \"#utility.yul\":11614:11631   */\n      swap1\n      pop\n        /* \"#utility.yul\":11659:11661   */\n      0x1f\n        /* \"#utility.yul\":11651:11657   */\n      dup4\n        /* \"#utility.yul\":11648:11662   */\n      gt\n        /* \"#utility.yul\":11676:11677   */\n      0x01\n        /* \"#utility.yul\":11671:12289   */\n      dup2\n      eq\n      tag_234\n      jumpi\n        /* \"#utility.yul\":12333:12334   */\n      0x00\n        /* \"#utility.yul\":12350:12356   */\n      dup5\n        /* \"#utility.yul\":12347:12424   */\n      iszero\n      tag_235\n      jumpi\n        /* \"#utility.yul\":12399:12408   */\n      dup3\n        /* \"#utility.yul\":12394:12397   */\n      dup8\n        /* \"#utility.yul\":12390:12409   */\n      add\n        /* \"#utility.yul\":12384:12410   */\n      mload\n        /* \"#utility.yul\":12375:12410   */\n      swap1\n      pop\n        /* \"#utility.yul\":12347:12424   */\n    tag_235:\n        /* \"#utility.yul\":12450:12517   */\n      tag_236\n        /* \"#utility.yul\":12510:12516   */\n      dup6\n        /* \"#utility.yul\":12503:12508   */\n      dup3\n        /* \"#utility.yul\":12450:12517   */\n      tag_101\n      jump\t// in\n    tag_236:\n        /* \"#utility.yul\":12444:12448   */\n      dup7\n        /* \"#utility.yul\":12437:12518   */\n      sstore\n        /* \"#utility.yul\":12306:12528   */\n      pop\n        /* \"#utility.yul\":11641:12528   */\n      jump(tag_233)\n        /* \"#utility.yul\":11671:12289   */\n    tag_234:\n        /* \"#utility.yul\":11723:11727   */\n      0x1f\n        /* \"#utility.yul\":11719:11728   */\n      not\n        /* \"#utility.yul\":11711:11717   */\n      dup5\n        /* \"#utility.yul\":11707:11729   */\n      and\n        /* \"#utility.yul\":11757:11794   */\n      tag_237\n        /* \"#utility.yul\":11789:11793   */\n      dup7\n        /* \"#utility.yul\":11757:11794   */\n      tag_87\n      jump\t// in\n    tag_237:\n        /* \"#utility.yul\":11816:11817   */\n      0x00\n        /* \"#utility.yul\":11830:12038   */\n    tag_238:\n        /* \"#utility.yul\":11844:11851   */\n      dup3\n        /* \"#utility.yul\":11841:11842   */\n      dup2\n        /* \"#utility.yul\":11838:11852   */\n      lt\n        /* \"#utility.yul\":11830:12038   */\n      iszero\n      tag_240\n      jumpi\n        /* \"#utility.yul\":11923:11932   */\n      dup5\n        /* \"#utility.yul\":11918:11921   */\n      dup10\n        /* \"#utility.yul\":11914:11933   */\n      add\n        /* \"#utility.yul\":11908:11934   */\n      mload\n        /* \"#utility.yul\":11900:11906   */\n      dup3\n        /* \"#utility.yul\":11893:11935   */\n      sstore\n        /* \"#utility.yul\":11974:11975   */\n      0x01\n        /* \"#utility.yul\":11966:11972   */\n      dup3\n        /* \"#utility.yul\":11962:11976   */\n      add\n        /* \"#utility.yul\":11952:11976   */\n      swap2\n      pop\n        /* \"#utility.yul\":12021:12023   */\n      0x20\n        /* \"#utility.yul\":12010:12019   */\n      dup6\n        /* \"#utility.yul\":12006:12024   */\n      add\n        /* \"#utility.yul\":11993:12024   */\n      swap5\n      pop\n        /* \"#utility.yul\":11867:11871   */\n      0x20\n        /* \"#utility.yul\":11864:11865   */\n      dup2\n        /* \"#utility.yul\":11860:11872   */\n      add\n        /* \"#utility.yul\":11855:11872   */\n      swap1\n      pop\n        /* \"#utility.yul\":11830:12038   */\n      jump(tag_238)\n    tag_240:\n        /* \"#utility.yul\":12066:12072   */\n      dup7\n        /* \"#utility.yul\":12057:12064   */\n      dup4\n        /* \"#utility.yul\":12054:12073   */\n      lt\n        /* \"#utility.yul\":12051:12230   */\n      iszero\n      tag_241\n      jumpi\n        /* \"#utility.yul\":12124:12133   */\n      dup5\n        /* \"#utility.yul\":12119:12122   */\n      dup10\n        /* \"#utility.yul\":12115:12134   */\n      add\n        /* \"#utility.yul\":12109:12135   */\n      mload\n        /* \"#utility.yul\":12167:12215   */\n      tag_242\n        /* \"#utility.yul\":12209:12213   */\n      0x1f\n        /* \"#utility.yul\":12201:12207   */\n      dup10\n        /* \"#utility.yul\":12197:12214   */\n      and\n        /* \"#utility.yul\":12186:12195   */\n      dup3\n        /* \"#utility.yul\":12167:12215   */\n      tag_100\n      jump\t// in\n    tag_242:\n        /* \"#utility.yul\":12159:12165   */\n      dup4\n        /* \"#utility.yul\":12152:12216   */\n      sstore\n        /* \"#utility.yul\":12074:12230   */\n      pop\n        /* \"#utility.yul\":12051:12230   */\n    tag_241:\n        /* \"#utility.yul\":12276:12277   */\n      0x01\n        /* \"#utility.yul\":12272:12273   */\n      0x02\n        /* \"#utility.yul\":12264:12270   */\n      dup9\n        /* \"#utility.yul\":12260:12274   */\n      mul\n        /* \"#utility.yul\":12256:12278   */\n      add\n        /* \"#utility.yul\":12250:12254   */\n      dup9\n        /* \"#utility.yul\":12243:12279   */\n      sstore\n        /* \"#utility.yul\":11678:12289   */\n      pop\n      pop\n      pop\n        /* \"#utility.yul\":11641:12528   */\n    tag_233:\n      pop\n        /* \"#utility.yul\":11231:12534   */\n      pop\n      pop\n      pop\n        /* \"#utility.yul\":11139:12534   */\n      pop\n      pop\n      jump\t// out\n        /* \"#utility.yul\":12540:12689   */\n    tag_102:\n        /* \"#utility.yul\":12589:12595   */\n      0x00\n        /* \"#utility.yul\":12623:12628   */\n      dup2\n        /* \"#utility.yul\":12617:12629   */\n      sload\n        /* \"#utility.yul\":12607:12629   */\n      swap1\n      pop\n        /* \"#utility.yul\":12649:12682   */\n      tag_244\n        /* \"#utility.yul\":12675:12681   */\n      dup2\n        /* \"#utility.yul\":12649:12682   */\n      tag_32\n      jump\t// in\n    tag_244:\n        /* \"#utility.yul\":12639:12682   */\n      swap1\n      pop\n        /* \"#utility.yul\":12540:12689   */\n      swap2\n      swap1\n      pop\n      jump\t// out\n        /* \"#utility.yul\":12695:14146   */\n    tag_30:\n        /* \"#utility.yul\":12806:12809   */\n      dup2\n        /* \"#utility.yul\":12800:12804   */\n      dup2\n        /* \"#utility.yul\":12797:12810   */\n      sub\n        /* \"#utility.yul\":12794:12820   */\n      tag_246\n      jumpi\n        /* \"#utility.yul\":12813:12818   */\n      pop\n      pop\n      jump(tag_245)\n        /* \"#utility.yul\":12794:12820   */\n    tag_246:\n        /* \"#utility.yul\":12844:12878   */\n      tag_247\n        /* \"#utility.yul\":12874:12877   */\n      dup3\n        /* \"#utility.yul\":12844:12878   */\n      tag_102\n      jump\t// in\n    tag_247:\n        /* \"#utility.yul\":12943:12961   */\n      0xffffffffffffffff\n        /* \"#utility.yul\":12935:12941   */\n      dup2\n        /* \"#utility.yul\":12932:12962   */\n      gt\n        /* \"#utility.yul\":12929:12985   */\n      iszero\n      tag_248\n      jumpi\n        /* \"#utility.yul\":12965:12983   */\n      tag_249\n      tag_63\n      jump\t// in\n    tag_249:\n        /* \"#utility.yul\":12929:12985   */\n    tag_248:\n        /* \"#utility.yul\":13009:13047   */\n      tag_250\n        /* \"#utility.yul\":13041:13045   */\n      dup3\n        /* \"#utility.yul\":13035:13046   */\n      sload\n        /* \"#utility.yul\":13009:13047   */\n      tag_32\n      jump\t// in\n    tag_250:\n        /* \"#utility.yul\":13094:13161   */\n      tag_251\n        /* \"#utility.yul\":13154:13160   */\n      dup3\n        /* \"#utility.yul\":13146:13152   */\n      dup3\n        /* \"#utility.yul\":13140:13144   */\n      dup6\n        /* \"#utility.yul\":13094:13161   */\n      tag_98\n      jump\t// in\n    tag_251:\n        /* \"#utility.yul\":13188:13189   */\n      0x00\n        /* \"#utility.yul\":13217:13219   */\n      0x1f\n        /* \"#utility.yul\":13209:13215   */\n      dup4\n        /* \"#utility.yul\":13206:13220   */\n      gt\n        /* \"#utility.yul\":13234:13235   */\n      0x01\n        /* \"#utility.yul\":13229:13901   */\n      dup2\n      eq\n      tag_253\n      jumpi\n        /* \"#utility.yul\":13945:13946   */\n      0x00\n        /* \"#utility.yul\":13962:13968   */\n      dup5\n        /* \"#utility.yul\":13959:14036   */\n      iszero\n      tag_254\n      jumpi\n        /* \"#utility.yul\":14011:14020   */\n      dup3\n        /* \"#utility.yul\":14006:14009   */\n      dup8\n        /* \"#utility.yul\":14002:14021   */\n      add\n        /* \"#utility.yul\":13996:14022   */\n      sload\n        /* \"#utility.yul\":13987:14022   */\n      swap1\n      pop\n        /* \"#utility.yul\":13959:14036   */\n    tag_254:\n        /* \"#utility.yul\":14062:14129   */\n      tag_255\n        /* \"#utility.yul\":14122:14128   */\n      dup6\n        /* \"#utility.yul\":14115:14120   */\n      dup3\n        /* \"#utility.yul\":14062:14129   */\n      tag_101\n      jump\t// in\n    tag_255:\n        /* \"#utility.yul\":14056:14060   */\n      dup7\n        /* \"#utility.yul\":14049:14130   */\n      sstore\n        /* \"#utility.yul\":13918:14140   */\n      pop\n        /* \"#utility.yul\":13199:14140   */\n      jump(tag_252)\n        /* \"#utility.yul\":13229:13901   */\n    tag_253:\n        /* \"#utility.yul\":13281:13285   */\n      0x1f\n        /* \"#utility.yul\":13277:13286   */\n      not\n        /* \"#utility.yul\":13269:13275   */\n      dup5\n        /* \"#utility.yul\":13265:13287   */\n      and\n        /* \"#utility.yul\":13307:13343   */\n      tag_256\n        /* \"#utility.yul\":13339:13342   */\n      dup8\n        /* \"#utility.yul\":13307:13343   */\n      tag_87\n      jump\t// in\n    tag_256:\n        /* \"#utility.yul\":13300:13343   */\n      swap7\n      pop\n        /* \"#utility.yul\":13370:13407   */\n      tag_257\n        /* \"#utility.yul\":13402:13406   */\n      dup7\n        /* \"#utility.yul\":13370:13407   */\n      tag_87\n      jump\t// in\n    tag_257:\n        /* \"#utility.yul\":13429:13430   */\n      0x00\n        /* \"#utility.yul\":13443:13650   */\n    tag_258:\n        /* \"#utility.yul\":13457:13464   */\n      dup3\n        /* \"#utility.yul\":13454:13455   */\n      dup2\n        /* \"#utility.yul\":13451:13465   */\n      lt\n        /* \"#utility.yul\":13443:13650   */\n      iszero\n      tag_260\n      jumpi\n        /* \"#utility.yul\":13536:13545   */\n      dup5\n        /* \"#utility.yul\":13531:13534   */\n      dup10\n        /* \"#utility.yul\":13527:13546   */\n      add\n        /* \"#utility.yul\":13521:13547   */\n      sload\n        /* \"#utility.yul\":13513:13519   */\n      dup3\n        /* \"#utility.yul\":13506:13548   */\n      sstore\n        /* \"#utility.yul\":13587:13588   */\n      0x01\n        /* \"#utility.yul\":13579:13585   */\n      dup3\n        /* \"#utility.yul\":13575:13589   */\n      add\n        /* \"#utility.yul\":13565:13589   */\n      swap2\n      pop\n        /* \"#utility.yul\":13634:13635   */\n      0x01\n        /* \"#utility.yul\":13623:13632   */\n      dup6\n        /* \"#utility.yul\":13619:13636   */\n      add\n        /* \"#utility.yul\":13606:13636   */\n      swap5\n      pop\n        /* \"#utility.yul\":13480:13484   */\n      0x20\n        /* \"#utility.yul\":13477:13478   */\n      dup2\n        /* \"#utility.yul\":13473:13485   */\n      add\n        /* \"#utility.yul\":13468:13485   */\n      swap1\n      pop\n        /* \"#utility.yul\":13443:13650   */\n      jump(tag_258)\n    tag_260:\n        /* \"#utility.yul\":13678:13684   */\n      dup7\n        /* \"#utility.yul\":13669:13676   */\n      dup4\n        /* \"#utility.yul\":13666:13685   */\n      lt\n        /* \"#utility.yul\":13663:13842   */\n      iszero\n      tag_261\n      jumpi\n        /* \"#utility.yul\":13736:13745   */\n      dup5\n        /* \"#utility.yul\":13731:13734   */\n      dup10\n        /* \"#utility.yul\":13727:13746   */\n      add\n        /* \"#utility.yul\":13721:13747   */\n      sload\n        /* \"#utility.yul\":13779:13827   */\n      tag_262\n        /* \"#utility.yul\":13821:13825   */\n      0x1f\n        /* \"#utility.yul\":13813:13819   */\n      dup10\n        /* \"#utility.yul\":13809:13826   */\n      and\n        /* \"#utility.yul\":13798:13807   */\n      dup3\n        /* \"#utility.yul\":13779:13827   */\n      tag_100\n      jump\t// in\n    tag_262:\n        /* \"#utility.yul\":13771:13777   */\n      dup4\n        /* \"#utility.yul\":13764:13828   */\n      sstore\n        /* \"#utility.yul\":13686:13842   */\n      pop\n        /* \"#utility.yul\":13663:13842   */\n    tag_261:\n        /* \"#utility.yul\":13888:13889   */\n      0x01\n        /* \"#utility.yul\":13884:13885   */\n      0x02\n        /* \"#utility.yul\":13876:13882   */\n      dup9\n        /* \"#utility.yul\":13872:13886   */\n      mul\n        /* \"#utility.yul\":13868:13890   */\n      add\n        /* \"#utility.yul\":13862:13866   */\n      dup9\n        /* \"#utility.yul\":13855:13891   */\n      sstore\n        /* \"#utility.yul\":13236:13901   */\n      pop\n      pop\n      pop\n        /* \"#utility.yul\":13199:14140   */\n    tag_252:\n      pop\n        /* \"#utility.yul\":12784:14146   */\n      pop\n      pop\n      pop\n        /* \"#utility.yul\":12695:14146   */\n      pop\n      pop\n    tag_245:\n      jump\t// out\n        /* \"#utility.yul\":14152:14332   */\n    tag_43:\n        /* \"#utility.yul\":14200:14277   */\n      0x4e487b7100000000000000000000000000000000000000000000000000000000\n        /* \"#utility.yul\":14197:14198   */\n      0x00\n        /* \"#utility.yul\":14190:14278   */\n      mstore\n        /* \"#utility.yul\":14297:14301   */\n      0x32\n        /* \"#utility.yul\":14294:14295   */\n      0x04\n        /* \"#utility.yul\":14287:14302   */\n      mstore\n        /* \"#utility.yul\":14321:14325   */\n      0x24\n        /* \"#utility.yul\":14318:14319   */\n      0x00\n        /* \"#utility.yul\":14311:14326   */\n      revert\n\n    auxdata: 0xa26469706673582212201c68c33b62f61314ce04685d99607988292fca8317f6b4049e757021b2e5dee664736f6c634300081e0033\n}\n",
				"bytecode": {
					"linkReferences": {},
					"object": "6080604052348015600e575f5ffd5b50610ce68061001c5f395ff3fe608060405234801561000f575f5ffd5b506004361061004a575f3560e01c806346f81a871461004e57806377ec2b551461006a5780639507d39a1461008a578063fdbda0ec146100ba575b5f5ffd5b6100686004803603810190610063919061067b565b6100ec565b005b6100726101fb565b60405161008193929190610783565b60405180910390f35b6100a4600480360381019061009f91906107bf565b6102b7565b6040516100b1919061089d565b60405180910390f35b6100d460048036038101906100cf91906107bf565b6103ed565b6040516100e393929190610783565b60405180910390f35b8160015f0190816100fd9190610aba565b508060018001819055503360016002015f6101000a81548173ffffffffffffffffffffffffffffffffffffffff021916908373ffffffffffffffffffffffffffffffffffffffff1602179055505f6001908060018154018082558091505060019003905f5260205f2090600302015f909190919091505f8201815f0190816101859190610b9e565b5060018201548160010155600282015f9054906101000a900473ffffffffffffffffffffffffffffffffffffffff16816002015f6101000a81548173ffffffffffffffffffffffffffffffffffffffff021916908373ffffffffffffffffffffffffffffffffffffffff16021790555050505050565b6001805f01805461020b906108ea565b80601f0160208091040260200160405190810160405280929190818152602001828054610237906108ea565b80156102825780601f1061025957610100808354040283529160200191610282565b820191905f5260205f20905b81548152906001019060200180831161026557829003601f168201915b505050505090806001015490806002015f9054906101000a900473ffffffffffffffffffffffffffffffffffffffff16905083565b6102bf6104c6565b815f80549050116102ce575f5ffd5b5f82815481106102e1576102e0610c83565b5b905f5260205f2090600302016040518060600160405290815f82018054610307906108ea565b80601f0160208091040260200160405190810160405280929190818152602001828054610333906108ea565b801561037e5780601f106103555761010080835404028352916020019161037e565b820191905f5260205f20905b81548152906001019060200180831161036157829003601f168201915b5050505050815260200160018201548152602001600282015f9054906101000a900473ffffffffffffffffffffffffffffffffffffffff1673ffffffffffffffffffffffffffffffffffffffff1673ffffffffffffffffffffffffffffffffffffffff16815250509050919050565b5f81815481106103fb575f80fd5b905f5260205f2090600302015f91509050805f01805461041a906108ea565b80601f0160208091040260200160405190810160405280929190818152602001828054610446906108ea565b80156104915780601f1061046857610100808354040283529160200191610491565b820191905f5260205f20905b81548152906001019060200180831161047457829003601f168201915b505050505090806001015490806002015f9054906101000a900473ffffffffffffffffffffffffffffffffffffffff16905083565b6040518060600160405280606081526020015f81526020015f73ffffffffffffffffffffffffffffffffffffffff1681525090565b5f604051905090565b5f5ffd5b5f5ffd5b5f5ffd5b5f5ffd5b5f601f19601f8301169050919050565b7f4e487b71000000000000000000000000000000000000000000000000000000005f52604160045260245ffd5b61055a82610514565b810181811067ffffffffffffffff8211171561057957610578610524565b5b80604052505050565b5f61058b6104fb565b90506105978282610551565b919050565b5f67ffffffffffffffff8211156105b6576105b5610524565b5b6105bf82610514565b9050602081019050919050565b828183375f83830152505050565b5f6105ec6105e78461059c565b610582565b90508281526020810184848401111561060857610607610510565b5b6106138482856105cc565b509392505050565b5f82601f83011261062f5761062e61050c565b5b813561063f8482602086016105da565b91505092915050565b5f819050919050565b61065a81610648565b8114610664575f5ffd5b50565b5f8135905061067581610651565b92915050565b5f5f6040838503121561069157610690610504565b5b5f83013567ffffffffffffffff8111156106ae576106ad610508565b5b6106ba8582860161061b565b92505060206106cb85828601610667565b9150509250929050565b5f81519050919050565b5f82825260208201905092915050565b8281835e5f83830152505050565b5f610707826106d5565b61071181856106df565b93506107218185602086016106ef565b61072a81610514565b840191505092915050565b61073e81610648565b82525050565b5f73ffffffffffffffffffffffffffffffffffffffff82169050919050565b5f61076d82610744565b9050919050565b61077d81610763565b82525050565b5f6060820190508181035f83015261079b81866106fd565b90506107aa6020830185610735565b6107b76040830184610774565b949350505050565b5f602082840312156107d4576107d3610504565b5b5f6107e184828501610667565b91505092915050565b5f82825260208201905092915050565b5f610804826106d5565b61080e81856107ea565b935061081e8185602086016106ef565b61082781610514565b840191505092915050565b61083b81610648565b82525050565b61084a81610763565b82525050565b5f606083015f8301518482035f86015261086a82826107fa565b915050602083015161087f6020860182610832565b5060408301516108926040860182610841565b508091505092915050565b5f6020820190508181035f8301526108b58184610850565b905092915050565b7f4e487b71000000000000000000000000000000000000000000000000000000005f52602260045260245ffd5b5f600282049050600182168061090157607f821691505b602082108103610914576109136108bd565b5b50919050565b5f819050815f5260205f209050919050565b5f6020601f8301049050919050565b5f82821b905092915050565b5f600883026109767fffffffffffffffffffffffffffffffffffffffffffffffffffffffffffffffff8261093b565b610980868361093b565b95508019841693508086168417925050509392505050565b5f819050919050565b5f6109bb6109b66109b184610648565b610998565b610648565b9050919050565b5f819050919050565b6109d4836109a1565b6109e86109e0826109c2565b848454610947565b825550505050565b5f5f905090565b6109ff6109f0565b610a0a8184846109cb565b505050565b5b81811015610a2d57610a225f826109f7565b600181019050610a10565b5050565b601f821115610a7257610a438161091a565b610a4c8461092c565b81016020851015610a5b578190505b610a6f610a678561092c565b830182610a0f565b50505b505050565b5f82821c905092915050565b5f610a925f1984600802610a77565b1980831691505092915050565b5f610aaa8383610a83565b9150826002028217905092915050565b610ac3826106d5565b67ffffffffffffffff811115610adc57610adb610524565b5b610ae682546108ea565b610af1828285610a31565b5f60209050601f831160018114610b22575f8415610b10578287015190505b610b1a8582610a9f565b865550610b81565b601f198416610b308661091a565b5f5b82811015610b5757848901518255600182019150602085019450602081019050610b32565b86831015610b745784890151610b70601f891682610a83565b8355505b6001600288020188555050505b505050505050565b5f81549050610b97816108ea565b9050919050565b818103610bac575050610c81565b610bb582610b89565b67ffffffffffffffff811115610bce57610bcd610524565b5b610bd882546108ea565b610be3828285610a31565b5f601f831160018114610c10575f8415610bfe578287015490505b610c088582610a9f565b865550610c7a565b601f198416610c1e8761091a565b9650610c298661091a565b5f5b82811015610c5057848901548255600182019150600185019450602081019050610c2b565b86831015610c6d5784890154610c69601f891682610a83565b8355505b6001600288020188555050505b5050505050505b565b7f4e487b71000000000000000000000000000000000000000000000000000000005f52603260045260245ffdfea26469706673582212201c68c33b62f61314ce04685d99607988292fca8317f6b4049e757021b2e5dee664736f6c634300081e0033",
					"opcodes": "PUSH1 0x80 PUSH1 0x40 MSTORE CALLVALUE DUP1 ISZERO PUSH1 0xE JUMPI PUSH0 PUSH0 REVERT JUMPDEST POP PUSH2 0xCE6 DUP1 PUSH2 0x1C PUSH0 CODECOPY PUSH0 RETURN INVALID PUSH1 0x80 PUSH1 0x40 MSTORE CALLVALUE DUP1 ISZERO PUSH2 0xF JUMPI PUSH0 PUSH0 REVERT JUMPDEST POP PUSH1 0x4 CALLDATASIZE LT PUSH2 0x4A JUMPI PUSH0 CALLDATALOAD PUSH1 0xE0 SHR DUP1 PUSH4 0x46F81A87 EQ PUSH2 0x4E JUMPI DUP1 PUSH4 0x77EC2B55 EQ PUSH2 0x6A JUMPI DUP1 PUSH4 0x9507D39A EQ PUSH2 0x8A JUMPI DUP1 PUSH4 0xFDBDA0EC EQ PUSH2 0xBA JUMPI JUMPDEST PUSH0 PUSH0 REVERT JUMPDEST PUSH2 0x68 PUSH1 0x4 DUP1 CALLDATASIZE SUB DUP2 ADD SWAP1 PUSH2 0x63 SWAP2 SWAP1 PUSH2 0x67B JUMP JUMPDEST PUSH2 0xEC JUMP JUMPDEST STOP JUMPDEST PUSH2 0x72 PUSH2 0x1FB JUMP JUMPDEST PUSH1 0x40 MLOAD PUSH2 0x81 SWAP4 SWAP3 SWAP2 SWAP1 PUSH2 0x783 JUMP JUMPDEST PUSH1 0x40 MLOAD DUP1 SWAP2 SUB SWAP1 RETURN JUMPDEST PUSH2 0xA4 PUSH1 0x4 DUP1 CALLDATASIZE SUB DUP2 ADD SWAP1 PUSH2 0x9F SWAP2 SWAP1 PUSH2 0x7BF JUMP JUMPDEST PUSH2 0x2B7 JUMP JUMPDEST PUSH1 0x40 MLOAD PUSH2 0xB1 SWAP2 SWAP1 PUSH2 0x89D JUMP JUMPDEST PUSH1 0x40 MLOAD DUP1 SWAP2 SUB SWAP1 RETURN JUMPDEST PUSH2 0xD4 PUSH1 0x4 DUP1 CALLDATASIZE SUB DUP2 ADD SWAP1 PUSH2 0xCF SWAP2 SWAP1 PUSH2 0x7BF JUMP JUMPDEST PUSH2 0x3ED JUMP JUMPDEST PUSH1 0x40 MLOAD PUSH2 0xE3 SWAP4 SWAP3 SWAP2 SWAP1 PUSH2 0x783 JUMP JUMPDEST PUSH1 0x40 MLOAD DUP1 SWAP2 SUB SWAP1 RETURN JUMPDEST DUP2 PUSH1 0x1 PUSH0 ADD SWAP1 DUP2 PUSH2 0xFD SWAP2 SWAP1 PUSH2 0xABA JUMP JUMPDEST POP DUP1 PUSH1 0x1 DUP1 ADD DUP2 SWAP1 SSTORE POP CALLER PUSH1 0x1 PUSH1 0x2 ADD PUSH0 PUSH2 0x100 EXP DUP2 SLOAD DUP2 PUSH20 0xFFFFFFFFFFFFFFFFFFFFFFFFFFFFFFFFFFFFFFFF MUL NOT AND SWAP1 DUP4 PUSH20 0xFFFFFFFFFFFFFFFFFFFFFFFFFFFFFFFFFFFFFFFF AND MUL OR SWAP1 SSTORE POP PUSH0 PUSH1 0x1 SWAP1 DUP1 PUSH1 0x1 DUP2 SLOAD ADD DUP1 DUP3 SSTORE DUP1 SWAP2 POP POP PUSH1 0x1 SWAP1 SUB SWAP1 PUSH0 MSTORE PUSH1 0x20 PUSH0 KECCAK256 SWAP1 PUSH1 0x3 MUL ADD PUSH0 SWAP1 SWAP2 SWAP1 SWAP2 SWAP1 SWAP2 POP PUSH0 DUP3 ADD DUP2 PUSH0 ADD SWAP1 DUP2 PUSH2 0x185 SWAP2 SWAP1 PUSH2 0xB9E JUMP JUMPDEST POP PUSH1 0x1 DUP3 ADD SLOAD DUP2 PUSH1 0x1 ADD SSTORE PUSH1 0x2 DUP3 ADD PUSH0 SWAP1 SLOAD SWAP1 PUSH2 0x100 EXP SWAP1 DIV PUSH20 0xFFFFFFFFFFFFFFFFFFFFFFFFFFFFFFFFFFFFFFFF AND DUP2 PUSH1 0x2 ADD PUSH0 PUSH2 0x100 EXP DUP2 SLOAD DUP2 PUSH20 0xFFFFFFFFFFFFFFFFFFFFFFFFFFFFFFFFFFFFFFFF MUL NOT AND SWAP1 DUP4 PUSH20 0xFFFFFFFFFFFFFFFFFFFFFFFFFFFFFFFFFFFFFFFF AND MUL OR SWAP1 SSTORE POP POP POP POP POP JUMP JUMPDEST PUSH1 0x1 DUP1 PUSH0 ADD DUP1 SLOAD PUSH2 0x20B SWAP1 PUSH2 0x8EA JUMP JUMPDEST DUP1 PUSH1 0x1F ADD PUSH1 0x20 DUP1 SWAP2 DIV MUL PUSH1 0x20 ADD PUSH1 0x40 MLOAD SWAP1 DUP2 ADD PUSH1 0x40 MSTORE DUP1 SWAP3 SWAP2 SWAP1 DUP2 DUP2 MSTORE PUSH1 0x20 ADD DUP3 DUP1 SLOAD PUSH2 0x237 SWAP1 PUSH2 0x8EA JUMP JUMPDEST DUP1 ISZERO PUSH2 0x282 JUMPI DUP1 PUSH1 0x1F LT PUSH2 0x259 JUMPI PUSH2 0x100 DUP1 DUP4 SLOAD DIV MUL DUP4 MSTORE SWAP2 PUSH1 0x20 ADD SWAP2 PUSH2 0x282 JUMP JUMPDEST DUP3 ADD SWAP2 SWAP1 PUSH0 MSTORE PUSH1 0x20 PUSH0 KECCAK256 SWAP1 JUMPDEST DUP2 SLOAD DUP2 MSTORE SWAP1 PUSH1 0x1 ADD SWAP1 PUSH1 0x20 ADD DUP1 DUP4 GT PUSH2 0x265 JUMPI DUP3 SWAP1 SUB PUSH1 0x1F AND DUP3 ADD SWAP2 JUMPDEST POP POP POP POP POP SWAP1 DUP1 PUSH1 0x1 ADD SLOAD SWAP1 DUP1 PUSH1 0x2 ADD PUSH0 SWAP1 SLOAD SWAP1 PUSH2 0x100 EXP SWAP1 DIV PUSH20 0xFFFFFFFFFFFFFFFFFFFFFFFFFFFFFFFFFFFFFFFF AND SWAP1 POP DUP4 JUMP JUMPDEST PUSH2 0x2BF PUSH2 0x4C6 JUMP JUMPDEST DUP2 PUSH0 DUP1 SLOAD SWAP1 POP GT PUSH2 0x2CE JUMPI PUSH0 PUSH0 REVERT JUMPDEST PUSH0 DUP3 DUP2 SLOAD DUP2 LT PUSH2 0x2E1 JUMPI PUSH2 0x2E0 PUSH2 0xC83 JUMP JUMPDEST JUMPDEST SWAP1 PUSH0 MSTORE PUSH1 0x20 PUSH0 KECCAK256 SWAP1 PUSH1 0x3 MUL ADD PUSH1 0x40 MLOAD DUP1 PUSH1 0x60 ADD PUSH1 0x40 MSTORE SWAP1 DUP2 PUSH0 DUP3 ADD DUP1 SLOAD PUSH2 0x307 SWAP1 PUSH2 0x8EA JUMP JUMPDEST DUP1 PUSH1 0x1F ADD PUSH1 0x20 DUP1 SWAP2 DIV MUL PUSH1 0x20 ADD PUSH1 0x40 MLOAD SWAP1 DUP2 ADD PUSH1 0x40 MSTORE DUP1 SWAP3 SWAP2 SWAP1 DUP2 DUP2 MSTORE PUSH1 0x20 ADD DUP3 DUP1 SLOAD PUSH2 0x333 SWAP1 PUSH2 0x8EA JUMP JUMPDEST DUP1 ISZERO PUSH2 0x37E JUMPI DUP1 PUSH1 0x1F LT PUSH2 0x355 JUMPI PUSH2 0x100 DUP1 DUP4 SLOAD DIV MUL DUP4 MSTORE SWAP2 PUSH1 0x20 ADD SWAP2 PUSH2 0x37E JUMP JUMPDEST DUP3 ADD SWAP2 SWAP1 PUSH0 MSTORE PUSH1 0x20 PUSH0 KECCAK256 SWAP1 JUMPDEST DUP2 SLOAD DUP2 MSTORE SWAP1 PUSH1 0x1 ADD SWAP1 PUSH1 0x20 ADD DUP1 DUP4 GT PUSH2 0x361 JUMPI DUP3 SWAP1 SUB PUSH1 0x1F AND DUP3 ADD SWAP2 JUMPDEST POP POP POP POP POP DUP2 MSTORE PUSH1 0x20 ADD PUSH1 0x1 DUP3 ADD SLOAD DUP2 MSTORE PUSH1 0x20 ADD PUSH1 0x2 DUP3 ADD PUSH0 SWAP1 SLOAD SWAP1 PUSH2 0x100 EXP SWAP1 DIV PUSH20 0xFFFFFFFFFFFFFFFFFFFFFFFFFFFFFFFFFFFFFFFF AND PUSH20 0xFFFFFFFFFFFFFFFFFFFFFFFFFFFFFFFFFFFFFFFF AND PUSH20 0xFFFFFFFFFFFFFFFFFFFFFFFFFFFFFFFFFFFFFFFF AND DUP2 MSTORE POP POP SWAP1 POP SWAP2 SWAP1 POP JUMP JUMPDEST PUSH0 DUP2 DUP2 SLOAD DUP2 LT PUSH2 0x3FB JUMPI PUSH0 DUP1 REVERT JUMPDEST SWAP1 PUSH0 MSTORE PUSH1 0x20 PUSH0 KECCAK256 SWAP1 PUSH1 0x3 MUL ADD PUSH0 SWAP2 POP SWAP1 POP DUP1 PUSH0 ADD DUP1 SLOAD PUSH2 0x41A SWAP1 PUSH2 0x8EA JUMP JUMPDEST DUP1 PUSH1 0x1F ADD PUSH1 0x20 DUP1 SWAP2 DIV MUL PUSH1 0x20 ADD PUSH1 0x40 MLOAD SWAP1 DUP2 ADD PUSH1 0x40 MSTORE DUP1 SWAP3 SWAP2 SWAP1 DUP2 DUP2 MSTORE PUSH1 0x20 ADD DUP3 DUP1 SLOAD PUSH2 0x446 SWAP1 PUSH2 0x8EA JUMP JUMPDEST DUP1 ISZERO PUSH2 0x491 JUMPI DUP1 PUSH1 0x1F LT PUSH2 0x468 JUMPI PUSH2 0x100 DUP1 DUP4 SLOAD DIV MUL DUP4 MSTORE SWAP2 PUSH1 0x20 ADD SWAP2 PUSH2 0x491 JUMP JUMPDEST DUP3 ADD SWAP2 SWAP1 PUSH0 MSTORE PUSH1 0x20 PUSH0 KECCAK256 SWAP1 JUMPDEST DUP2 SLOAD DUP2 MSTORE SWAP1 PUSH1 0x1 ADD SWAP1 PUSH1 0x20 ADD DUP1 DUP4 GT PUSH2 0x474 JUMPI DUP3 SWAP1 SUB PUSH1 0x1F AND DUP3 ADD SWAP2 JUMPDEST POP POP POP POP POP SWAP1 DUP1 PUSH1 0x1 ADD SLOAD SWAP1 DUP1 PUSH1 0x2 ADD PUSH0 SWAP1 SLOAD SWAP1 PUSH2 0x100 EXP SWAP1 DIV PUSH20 0xFFFFFFFFFFFFFFFFFFFFFFFFFFFFFFFFFFFFFFFF AND SWAP1 POP DUP4 JUMP JUMPDEST PUSH1 0x40 MLOAD DUP1 PUSH1 0x60 ADD PUSH1 0x40 MSTORE DUP1 PUSH1 0x60 DUP2 MSTORE PUSH1 0x20 ADD PUSH0 DUP2 MSTORE PUSH1 0x20 ADD PUSH0 PUSH20 0xFFFFFFFFFFFFFFFFFFFFFFFFFFFFFFFFFFFFFFFF AND DUP2 MSTORE POP SWAP1 JUMP JUMPDEST PUSH0 PUSH1 0x40 MLOAD SWAP1 POP SWAP1 JUMP JUMPDEST PUSH0 PUSH0 REVERT JUMPDEST PUSH0 PUSH0 REVERT JUMPDEST PUSH0 PUSH0 REVERT JUMPDEST PUSH0 PUSH0 REVERT JUMPDEST PUSH0 PUSH1 0x1F NOT PUSH1 0x1F DUP4 ADD AND SWAP1 POP SWAP2 SWAP1 POP JUMP JUMPDEST PUSH32 0x4E487B7100000000000000000000000000000000000000000000000000000000 PUSH0 MSTORE PUSH1 0x41 PUSH1 0x4 MSTORE PUSH1 0x24 PUSH0 REVERT JUMPDEST PUSH2 0x55A DUP3 PUSH2 0x514 JUMP JUMPDEST DUP2 ADD DUP2 DUP2 LT PUSH8 0xFFFFFFFFFFFFFFFF DUP3 GT OR ISZERO PUSH2 0x579 JUMPI PUSH2 0x578 PUSH2 0x524 JUMP JUMPDEST JUMPDEST DUP1 PUSH1 0x40 MSTORE POP POP POP JUMP JUMPDEST PUSH0 PUSH2 0x58B PUSH2 0x4FB JUMP JUMPDEST SWAP1 POP PUSH2 0x597 DUP3 DUP3 PUSH2 0x551 JUMP JUMPDEST SWAP2 SWAP1 POP JUMP JUMPDEST PUSH0 PUSH8 0xFFFFFFFFFFFFFFFF DUP3 GT ISZERO PUSH2 0x5B6 JUMPI PUSH2 0x5B5 PUSH2 0x524 JUMP JUMPDEST JUMPDEST PUSH2 0x5BF DUP3 PUSH2 0x514 JUMP JUMPDEST SWAP1 POP PUSH1 0x20 DUP2 ADD SWAP1 POP SWAP2 SWAP1 POP JUMP JUMPDEST DUP3 DUP2 DUP4 CALLDATACOPY PUSH0 DUP4 DUP4 ADD MSTORE POP POP POP JUMP JUMPDEST PUSH0 PUSH2 0x5EC PUSH2 0x5E7 DUP5 PUSH2 0x59C JUMP JUMPDEST PUSH2 0x582 JUMP JUMPDEST SWAP1 POP DUP3 DUP2 MSTORE PUSH1 0x20 DUP2 ADD DUP5 DUP5 DUP5 ADD GT ISZERO PUSH2 0x608 JUMPI PUSH2 0x607 PUSH2 0x510 JUMP JUMPDEST JUMPDEST PUSH2 0x613 DUP5 DUP3 DUP6 PUSH2 0x5CC JUMP JUMPDEST POP SWAP4 SWAP3 POP POP POP JUMP JUMPDEST PUSH0 DUP3 PUSH1 0x1F DUP4 ADD SLT PUSH2 0x62F JUMPI PUSH2 0x62E PUSH2 0x50C JUMP JUMPDEST JUMPDEST DUP2 CALLDATALOAD PUSH2 0x63F DUP5 DUP3 PUSH1 0x20 DUP7 ADD PUSH2 0x5DA JUMP JUMPDEST SWAP2 POP POP SWAP3 SWAP2 POP POP JUMP JUMPDEST PUSH0 DUP2 SWAP1 POP SWAP2 SWAP1 POP JUMP JUMPDEST PUSH2 0x65A DUP2 PUSH2 0x648 JUMP JUMPDEST DUP2 EQ PUSH2 0x664 JUMPI PUSH0 PUSH0 REVERT JUMPDEST POP JUMP JUMPDEST PUSH0 DUP2 CALLDATALOAD SWAP1 POP PUSH2 0x675 DUP2 PUSH2 0x651 JUMP JUMPDEST SWAP3 SWAP2 POP POP JUMP JUMPDEST PUSH0 PUSH0 PUSH1 0x40 DUP4 DUP6 SUB SLT ISZERO PUSH2 0x691 JUMPI PUSH2 0x690 PUSH2 0x504 JUMP JUMPDEST JUMPDEST PUSH0 DUP4 ADD CALLDATALOAD PUSH8 0xFFFFFFFFFFFFFFFF DUP2 GT ISZERO PUSH2 0x6AE JUMPI PUSH2 0x6AD PUSH2 0x508 JUMP JUMPDEST JUMPDEST PUSH2 0x6BA DUP6 DUP3 DUP7 ADD PUSH2 0x61B JUMP JUMPDEST SWAP3 POP POP PUSH1 0x20 PUSH2 0x6CB DUP6 DUP3 DUP7 ADD PUSH2 0x667 JUMP JUMPDEST SWAP2 POP POP SWAP3 POP SWAP3 SWAP1 POP JUMP JUMPDEST PUSH0 DUP2 MLOAD SWAP1 POP SWAP2 SWAP1 POP JUMP JUMPDEST PUSH0 DUP3 DUP3 MSTORE PUSH1 0x20 DUP3 ADD SWAP1 POP SWAP3 SWAP2 POP POP JUMP JUMPDEST DUP3 DUP2 DUP4 MCOPY PUSH0 DUP4 DUP4 ADD MSTORE POP POP POP JUMP JUMPDEST PUSH0 PUSH2 0x707 DUP3 PUSH2 0x6D5 JUMP JUMPDEST PUSH2 0x711 DUP2 DUP6 PUSH2 0x6DF JUMP JUMPDEST SWAP4 POP PUSH2 0x721 DUP2 DUP6 PUSH1 0x20 DUP7 ADD PUSH2 0x6EF JUMP JUMPDEST PUSH2 0x72A DUP2 PUSH2 0x514 JUMP JUMPDEST DUP5 ADD SWAP2 POP POP SWAP3 SWAP2 POP POP JUMP JUMPDEST PUSH2 0x73E DUP2 PUSH2 0x648 JUMP JUMPDEST DUP3 MSTORE POP POP JUMP JUMPDEST PUSH0 PUSH20 0xFFFFFFFFFFFFFFFFFFFFFFFFFFFFFFFFFFFFFFFF DUP3 AND SWAP1 POP SWAP2 SWAP1 POP JUMP JUMPDEST PUSH0 PUSH2 0x76D DUP3 PUSH2 0x744 JUMP JUMPDEST SWAP1 POP SWAP2 SWAP1 POP JUMP JUMPDEST PUSH2 0x77D DUP2 PUSH2 0x763 JUMP JUMPDEST DUP3 MSTORE POP POP JUMP JUMPDEST PUSH0 PUSH1 0x60 DUP3 ADD SWAP1 POP DUP2 DUP2 SUB PUSH0 DUP4 ADD MSTORE PUSH2 0x79B DUP2 DUP7 PUSH2 0x6FD JUMP JUMPDEST SWAP1 POP PUSH2 0x7AA PUSH1 0x20 DUP4 ADD DUP6 PUSH2 0x735 JUMP JUMPDEST PUSH2 0x7B7 PUSH1 0x40 DUP4 ADD DUP5 PUSH2 0x774 JUMP JUMPDEST SWAP5 SWAP4 POP POP POP POP JUMP JUMPDEST PUSH0 PUSH1 0x20 DUP3 DUP5 SUB SLT ISZERO PUSH2 0x7D4 JUMPI PUSH2 0x7D3 PUSH2 0x504 JUMP JUMPDEST JUMPDEST PUSH0 PUSH2 0x7E1 DUP5 DUP3 DUP6 ADD PUSH2 0x667 JUMP JUMPDEST SWAP2 POP POP SWAP3 SWAP2 POP POP JUMP JUMPDEST PUSH0 DUP3 DUP3 MSTORE PUSH1 0x20 DUP3 ADD SWAP1 POP SWAP3 SWAP2 POP POP JUMP JUMPDEST PUSH0 PUSH2 0x804 DUP3 PUSH2 0x6D5 JUMP JUMPDEST PUSH2 0x80E DUP2 DUP6 PUSH2 0x7EA JUMP JUMPDEST SWAP4 POP PUSH2 0x81E DUP2 DUP6 PUSH1 0x20 DUP7 ADD PUSH2 0x6EF JUMP JUMPDEST PUSH2 0x827 DUP2 PUSH2 0x514 JUMP JUMPDEST DUP5 ADD SWAP2 POP POP SWAP3 SWAP2 POP POP JUMP JUMPDEST PUSH2 0x83B DUP2 PUSH2 0x648 JUMP JUMPDEST DUP3 MSTORE POP POP JUMP JUMPDEST PUSH2 0x84A DUP2 PUSH2 0x763 JUMP JUMPDEST DUP3 MSTORE POP POP JUMP JUMPDEST PUSH0 PUSH1 0x60 DUP4 ADD PUSH0 DUP4 ADD MLOAD DUP5 DUP3 SUB PUSH0 DUP7 ADD MSTORE PUSH2 0x86A DUP3 DUP3 PUSH2 0x7FA JUMP JUMPDEST SWAP2 POP POP PUSH1 0x20 DUP4 ADD MLOAD PUSH2 0x87F PUSH1 0x20 DUP7 ADD DUP3 PUSH2 0x832 JUMP JUMPDEST POP PUSH1 0x40 DUP4 ADD MLOAD PUSH2 0x892 PUSH1 0x40 DUP7 ADD DUP3 PUSH2 0x841 JUMP JUMPDEST POP DUP1 SWAP2 POP POP SWAP3 SWAP2 POP POP JUMP JUMPDEST PUSH0 PUSH1 0x20 DUP3 ADD SWAP1 POP DUP2 DUP2 SUB PUSH0 DUP4 ADD MSTORE PUSH2 0x8B5 DUP2 DUP5 PUSH2 0x850 JUMP JUMPDEST SWAP1 POP SWAP3 SWAP2 POP POP JUMP JUMPDEST PUSH32 0x4E487B7100000000000000000000000000000000000000000000000000000000 PUSH0 MSTORE PUSH1 0x22 PUSH1 0x4 MSTORE PUSH1 0x24 PUSH0 REVERT JUMPDEST PUSH0 PUSH1 0x2 DUP3 DIV SWAP1 POP PUSH1 0x1 DUP3 AND DUP1 PUSH2 0x901 JUMPI PUSH1 0x7F DUP3 AND SWAP2 POP JUMPDEST PUSH1 0x20 DUP3 LT DUP2 SUB PUSH2 0x914 JUMPI PUSH2 0x913 PUSH2 0x8BD JUMP JUMPDEST JUMPDEST POP SWAP2 SWAP1 POP JUMP JUMPDEST PUSH0 DUP2 SWAP1 POP DUP2 PUSH0 MSTORE PUSH1 0x20 PUSH0 KECCAK256 SWAP1 POP SWAP2 SWAP1 POP JUMP JUMPDEST PUSH0 PUSH1 0x20 PUSH1 0x1F DUP4 ADD DIV SWAP1 POP SWAP2 SWAP1 POP JUMP JUMPDEST PUSH0 DUP3 DUP3 SHL SWAP1 POP SWAP3 SWAP2 POP POP JUMP JUMPDEST PUSH0 PUSH1 0x8 DUP4 MUL PUSH2 0x976 PUSH32 0xFFFFFFFFFFFFFFFFFFFFFFFFFFFFFFFFFFFFFFFFFFFFFFFFFFFFFFFFFFFFFFFF DUP3 PUSH2 0x93B JUMP JUMPDEST PUSH2 0x980 DUP7 DUP4 PUSH2 0x93B JUMP JUMPDEST SWAP6 POP DUP1 NOT DUP5 AND SWAP4 POP DUP1 DUP7 AND DUP5 OR SWAP3 POP POP POP SWAP4 SWAP3 POP POP POP JUMP JUMPDEST PUSH0 DUP2 SWAP1 POP SWAP2 SWAP1 POP JUMP JUMPDEST PUSH0 PUSH2 0x9BB PUSH2 0x9B6 PUSH2 0x9B1 DUP5 PUSH2 0x648 JUMP JUMPDEST PUSH2 0x998 JUMP JUMPDEST PUSH2 0x648 JUMP JUMPDEST SWAP1 POP SWAP2 SWAP1 POP JUMP JUMPDEST PUSH0 DUP2 SWAP1 POP SWAP2 SWAP1 POP JUMP JUMPDEST PUSH2 0x9D4 DUP4 PUSH2 0x9A1 JUMP JUMPDEST PUSH2 0x9E8 PUSH2 0x9E0 DUP3 PUSH2 0x9C2 JUMP JUMPDEST DUP5 DUP5 SLOAD PUSH2 0x947 JUMP JUMPDEST DUP3 SSTORE POP POP POP POP JUMP JUMPDEST PUSH0 PUSH0 SWAP1 POP SWAP1 JUMP JUMPDEST PUSH2 0x9FF PUSH2 0x9F0 JUMP JUMPDEST PUSH2 0xA0A DUP2 DUP5 DUP5 PUSH2 0x9CB JUMP JUMPDEST POP POP POP JUMP JUMPDEST JUMPDEST DUP2 DUP2 LT ISZERO PUSH2 0xA2D JUMPI PUSH2 0xA22 PUSH0 DUP3 PUSH2 0x9F7 JUMP JUMPDEST PUSH1 0x1 DUP2 ADD SWAP1 POP PUSH2 0xA10 JUMP JUMPDEST POP POP JUMP JUMPDEST PUSH1 0x1F DUP3 GT ISZERO PUSH2 0xA72 JUMPI PUSH2 0xA43 DUP2 PUSH2 0x91A JUMP JUMPDEST PUSH2 0xA4C DUP5 PUSH2 0x92C JUMP JUMPDEST DUP2 ADD PUSH1 0x20 DUP6 LT ISZERO PUSH2 0xA5B JUMPI DUP2 SWAP1 POP JUMPDEST PUSH2 0xA6F PUSH2 0xA67 DUP6 PUSH2 0x92C JUMP JUMPDEST DUP4 ADD DUP3 PUSH2 0xA0F JUMP JUMPDEST POP POP JUMPDEST POP POP POP JUMP JUMPDEST PUSH0 DUP3 DUP3 SHR SWAP1 POP SWAP3 SWAP2 POP POP JUMP JUMPDEST PUSH0 PUSH2 0xA92 PUSH0 NOT DUP5 PUSH1 0x8 MUL PUSH2 0xA77 JUMP JUMPDEST NOT DUP1 DUP4 AND SWAP2 POP POP SWAP3 SWAP2 POP POP JUMP JUMPDEST PUSH0 PUSH2 0xAAA DUP4 DUP4 PUSH2 0xA83 JUMP JUMPDEST SWAP2 POP DUP3 PUSH1 0x2 MUL DUP3 OR SWAP1 POP SWAP3 SWAP2 POP POP JUMP JUMPDEST PUSH2 0xAC3 DUP3 PUSH2 0x6D5 JUMP JUMPDEST PUSH8 0xFFFFFFFFFFFFFFFF DUP2 GT ISZERO PUSH2 0xADC JUMPI PUSH2 0xADB PUSH2 0x524 JUMP JUMPDEST JUMPDEST PUSH2 0xAE6 DUP3 SLOAD PUSH2 0x8EA JUMP JUMPDEST PUSH2 0xAF1 DUP3 DUP3 DUP6 PUSH2 0xA31 JUMP JUMPDEST PUSH0 PUSH1 0x20 SWAP1 POP PUSH1 0x1F DUP4 GT PUSH1 0x1 DUP2 EQ PUSH2 0xB22 JUMPI PUSH0 DUP5 ISZERO PUSH2 0xB10 JUMPI DUP3 DUP8 ADD MLOAD SWAP1 POP JUMPDEST PUSH2 0xB1A DUP6 DUP3 PUSH2 0xA9F JUMP JUMPDEST DUP7 SSTORE POP PUSH2 0xB81 JUMP JUMPDEST PUSH1 0x1F NOT DUP5 AND PUSH2 0xB30 DUP7 PUSH2 0x91A JUMP JUMPDEST PUSH0 JUMPDEST DUP3 DUP2 LT ISZERO PUSH2 0xB57 JUMPI DUP5 DUP10 ADD MLOAD DUP3 SSTORE PUSH1 0x1 DUP3 ADD SWAP2 POP PUSH1 0x20 DUP6 ADD SWAP5 POP PUSH1 0x20 DUP2 ADD SWAP1 POP PUSH2 0xB32 JUMP JUMPDEST DUP7 DUP4 LT ISZERO PUSH2 0xB74 JUMPI DUP5 DUP10 ADD MLOAD PUSH2 0xB70 PUSH1 0x1F DUP10 AND DUP3 PUSH2 0xA83 JUMP JUMPDEST DUP4 SSTORE POP JUMPDEST PUSH1 0x1 PUSH1 0x2 DUP9 MUL ADD DUP9 SSTORE POP POP POP JUMPDEST POP POP POP POP POP POP JUMP JUMPDEST PUSH0 DUP2 SLOAD SWAP1 POP PUSH2 0xB97 DUP2 PUSH2 0x8EA JUMP JUMPDEST SWAP1 POP SWAP2 SWAP1 POP JUMP JUMPDEST DUP2 DUP2 SUB PUSH2 0xBAC JUMPI POP POP PUSH2 0xC81 JUMP JUMPDEST PUSH2 0xBB5 DUP3 PUSH2 0xB89 JUMP JUMPDEST PUSH8 0xFFFFFFFFFFFFFFFF DUP2 GT ISZERO PUSH2 0xBCE JUMPI PUSH2 0xBCD PUSH2 0x524 JUMP JUMPDEST JUMPDEST PUSH2 0xBD8 DUP3 SLOAD PUSH2 0x8EA JUMP JUMPDEST PUSH2 0xBE3 DUP3 DUP3 DUP6 PUSH2 0xA31 JUMP JUMPDEST PUSH0 PUSH1 0x1F DUP4 GT PUSH1 0x1 DUP2 EQ PUSH2 0xC10 JUMPI PUSH0 DUP5 ISZERO PUSH2 0xBFE JUMPI DUP3 DUP8 ADD SLOAD SWAP1 POP JUMPDEST PUSH2 0xC08 DUP6 DUP3 PUSH2 0xA9F JUMP JUMPDEST DUP7 SSTORE POP PUSH2 0xC7A JUMP JUMPDEST PUSH1 0x1F NOT DUP5 AND PUSH2 0xC1E DUP8 PUSH2 0x91A JUMP JUMPDEST SWAP7 POP PUSH2 0xC29 DUP7 PUSH2 0x91A JUMP JUMPDEST PUSH0 JUMPDEST DUP3 DUP2 LT ISZERO PUSH2 0xC50 JUMPI DUP5 DUP10 ADD SLOAD DUP3 SSTORE PUSH1 0x1 DUP3 ADD SWAP2 POP PUSH1 0x1 DUP6 ADD SWAP5 POP PUSH1 0x20 DUP2 ADD SWAP1 POP PUSH2 0xC2B JUMP JUMPDEST DUP7 DUP4 LT ISZERO PUSH2 0xC6D JUMPI DUP5 DUP10 ADD SLOAD PUSH2 0xC69 PUSH1 0x1F DUP10 AND DUP3 PUSH2 0xA83 JUMP JUMPDEST DUP4 SSTORE POP JUMPDEST PUSH1 0x1 PUSH1 0x2 DUP9 MUL ADD DUP9 SSTORE POP POP POP JUMPDEST POP POP POP POP POP POP JUMPDEST JUMP JUMPDEST PUSH32 0x4E487B7100000000000000000000000000000000000000000000000000000000 PUSH0 MSTORE PUSH1 0x32 PUSH1 0x4 MSTORE PUSH1 0x24 PUSH0 REVERT INVALID LOG2 PUSH5 0x6970667358 0x22 SLT KECCAK256 SHR PUSH9 0xC33B62F61314CE0468 TSTORE SWAP10 PUSH1 0x79 DUP9 0x29 0x2F 0xCA DUP4 OR 0xF6 0xB4 DIV SWAP15 PUSH22 0x7021B2E5DEE664736F6C634300081E00330000000000 "
				},
				"gasEstimates": {
					"creation": {
						"codeDepositCost": "660400",
						"executionCost": "694",
						"totalCost": "661094"
					},
					"external": {
						"collections(uint256)": "infinite",
						"create(string,uint256)": "infinite",
						"get(uint256)": "infinite",
						"person()": "infinite"
					}
				},
				"methodIdentifiers": {
					"collections(uint256)": "fdbda0ec",
					"create(string,uint256)": "46f81a87",
					"get(uint256)": "9507d39a",
					"person()": "77ec2b55"
				}
			},
			"storageLayout": {
				"storage": [
					{
						"astId": 12,
						"contract": "chapter-9/contract.sol:Contract",
						"label": "collections",
						"offset": 0,
						"slot": "0",
						"type": "t_array(t_struct(Person)8_storage)dyn_storage"
					},
					{
						"astId": 15,
						"contract": "chapter-9/contract.sol:Contract",
						"label": "person",
						"offset": 0,
						"slot": "1",
						"type": "t_struct(Person)8_storage"
					}
				],
				"types": {
					"t_address": {
						"encoding": "inplace",
						"label": "address",
						"numberOfBytes": "20"
					},
					"t_array(t_struct(Person)8_storage)dyn_storage": {
						"base": "t_struct(Person)8_storage",
						"encoding": "dynamic_array",
						"label": "struct Contract.Person[]",
						"numberOfBytes": "32"
					},
					"t_string_storage": {
						"encoding": "bytes",
						"label": "string",
						"numberOfBytes": "32"
					},
					"t_struct(Person)8_storage": {
						"encoding": "inplace",
						"label": "struct Contract.Person",
						"members": [
							{
								"astId": 3,
								"contract": "chapter-9/contract.sol:Contract",
								"label": "name",
								"offset": 0,
								"slot": "0",
								"type": "t_string_storage"
							},
							{
								"astId": 5,
								"contract": "chapter-9/contract.sol:Contract",
								"label": "age",
								"offset": 0,
								"slot": "1",
								"type": "t_uint256"
							},
							{
								"astId": 7,
								"contract": "chapter-9/contract.sol:Contract",
								"label": "addr",
								"offset": 0,
								"slot": "2",
								"type": "t_address"
							}
						],
						"numberOfBytes": "96"
					},
					"t_uint256": {
						"encoding": "inplace",
						"label": "uint256",
						"numberOfBytes": "32"
					}
				}
			},
			"userdoc": {
				"kind": "user",
				"methods": {},
				"version": 1
			}
		}
	}
}